{
  "_format": "hh-sol-artifact-1",
  "contractName": "EduBaseGovernance",
  "sourceName": "contracts/EduBaseGovernance.sol",
  "abi": [
    {
      "inputs": [
        {
          "internalType": "address",
          "name": "tokenAddress",
          "type": "address"
        }
      ],
      "stateMutability": "nonpayable",
      "type": "constructor"
    },
    {
      "inputs": [
        {
          "internalType": "address",
          "name": "sender",
          "type": "address"
        },
        {
          "internalType": "uint256",
          "name": "tokenId",
          "type": "uint256"
        },
        {
          "internalType": "address",
          "name": "owner",
          "type": "address"
        }
      ],
      "name": "ERC721IncorrectOwner",
      "type": "error"
    },
    {
      "inputs": [
        {
          "internalType": "address",
          "name": "operator",
          "type": "address"
        },
        {
          "internalType": "uint256",
          "name": "tokenId",
          "type": "uint256"
        }
      ],
      "name": "ERC721InsufficientApproval",
      "type": "error"
    },
    {
      "inputs": [
        {
          "internalType": "address",
          "name": "approver",
          "type": "address"
        }
      ],
      "name": "ERC721InvalidApprover",
      "type": "error"
    },
    {
      "inputs": [
        {
          "internalType": "address",
          "name": "operator",
          "type": "address"
        }
      ],
      "name": "ERC721InvalidOperator",
      "type": "error"
    },
    {
      "inputs": [
        {
          "internalType": "address",
          "name": "owner",
          "type": "address"
        }
      ],
      "name": "ERC721InvalidOwner",
      "type": "error"
    },
    {
      "inputs": [
        {
          "internalType": "address",
          "name": "receiver",
          "type": "address"
        }
      ],
      "name": "ERC721InvalidReceiver",
      "type": "error"
    },
    {
      "inputs": [
        {
          "internalType": "address",
          "name": "sender",
          "type": "address"
        }
      ],
      "name": "ERC721InvalidSender",
      "type": "error"
    },
    {
      "inputs": [
        {
          "internalType": "uint256",
          "name": "tokenId",
          "type": "uint256"
        }
      ],
      "name": "ERC721NonexistentToken",
      "type": "error"
    },
    {
      "inputs": [],
      "name": "EnforcedPause",
      "type": "error"
    },
    {
      "inputs": [],
      "name": "ExpectedPause",
      "type": "error"
    },
    {
      "inputs": [
        {
          "internalType": "address",
          "name": "owner",
          "type": "address"
        }
      ],
      "name": "OwnableInvalidOwner",
      "type": "error"
    },
    {
      "inputs": [
        {
          "internalType": "address",
          "name": "account",
          "type": "address"
        }
      ],
      "name": "OwnableUnauthorizedAccount",
      "type": "error"
    },
    {
      "inputs": [],
      "name": "ReentrancyGuardReentrantCall",
      "type": "error"
    },
    {
      "anonymous": false,
      "inputs": [
        {
          "indexed": true,
          "internalType": "address",
          "name": "owner",
          "type": "address"
        },
        {
          "indexed": true,
          "internalType": "address",
          "name": "approved",
          "type": "address"
        },
        {
          "indexed": true,
          "internalType": "uint256",
          "name": "tokenId",
          "type": "uint256"
        }
      ],
      "name": "Approval",
      "type": "event"
    },
    {
      "anonymous": false,
      "inputs": [
        {
          "indexed": true,
          "internalType": "address",
          "name": "owner",
          "type": "address"
        },
        {
          "indexed": true,
          "internalType": "address",
          "name": "operator",
          "type": "address"
        },
        {
          "indexed": false,
          "internalType": "bool",
          "name": "approved",
          "type": "bool"
        }
      ],
      "name": "ApprovalForAll",
      "type": "event"
    },
    {
      "anonymous": false,
      "inputs": [
        {
          "indexed": true,
          "internalType": "address",
          "name": "donor",
          "type": "address"
        },
        {
          "indexed": false,
          "internalType": "uint256",
          "name": "amount",
          "type": "uint256"
        },
        {
          "indexed": false,
          "internalType": "uint256",
          "name": "proposalID",
          "type": "uint256"
        }
      ],
      "name": "DonationReceived",
      "type": "event"
    },
    {
      "anonymous": false,
      "inputs": [
        {
          "indexed": true,
          "internalType": "uint256",
          "name": "grantId",
          "type": "uint256"
        },
        {
          "indexed": true,
          "internalType": "address",
          "name": "student",
          "type": "address"
        },
        {
          "indexed": false,
          "internalType": "uint256",
          "name": "amount",
          "type": "uint256"
        }
      ],
      "name": "GrantApproved",
      "type": "event"
    },
    {
      "anonymous": false,
      "inputs": [
        {
          "indexed": true,
          "internalType": "uint256",
          "name": "grantId",
          "type": "uint256"
        },
        {
          "indexed": true,
          "internalType": "address",
          "name": "student",
          "type": "address"
        },
        {
          "indexed": false,
          "internalType": "uint256",
          "name": "amount",
          "type": "uint256"
        }
      ],
      "name": "GrantClaimed",
      "type": "event"
    },
    {
      "anonymous": false,
      "inputs": [
        {
          "indexed": true,
          "internalType": "uint256",
          "name": "grantId",
          "type": "uint256"
        }
      ],
      "name": "GrantRejected",
      "type": "event"
    },
    {
      "anonymous": false,
      "inputs": [
        {
          "indexed": true,
          "internalType": "uint256",
          "name": "grantId",
          "type": "uint256"
        },
        {
          "indexed": true,
          "internalType": "address",
          "name": "student",
          "type": "address"
        },
        {
          "indexed": false,
          "internalType": "uint256",
          "name": "amount",
          "type": "uint256"
        }
      ],
      "name": "GrantRequested",
      "type": "event"
    },
    {
      "anonymous": false,
      "inputs": [
        {
          "indexed": true,
          "internalType": "address",
          "name": "recipient",
          "type": "address"
        },
        {
          "indexed": false,
          "internalType": "uint256",
          "name": "tokenId",
          "type": "uint256"
        }
      ],
      "name": "NFTAwarded",
      "type": "event"
    },
    {
      "anonymous": false,
      "inputs": [
        {
          "indexed": true,
          "internalType": "address",
          "name": "previousOwner",
          "type": "address"
        },
        {
          "indexed": true,
          "internalType": "address",
          "name": "newOwner",
          "type": "address"
        }
      ],
      "name": "OwnershipTransferred",
      "type": "event"
    },
    {
      "anonymous": false,
      "inputs": [
        {
          "indexed": false,
          "internalType": "address",
          "name": "account",
          "type": "address"
        }
      ],
      "name": "Paused",
      "type": "event"
    },
    {
      "anonymous": false,
      "inputs": [
        {
          "indexed": true,
          "internalType": "uint256",
          "name": "proposalId",
          "type": "uint256"
        },
        {
          "indexed": false,
          "internalType": "string",
          "name": "description",
          "type": "string"
        },
        {
          "indexed": false,
          "internalType": "uint256",
          "name": "amountRequired",
          "type": "uint256"
        }
      ],
      "name": "ProposalCreated",
      "type": "event"
    },
    {
      "anonymous": false,
      "inputs": [
        {
          "indexed": true,
          "internalType": "address",
          "name": "from",
          "type": "address"
        },
        {
          "indexed": true,
          "internalType": "address",
          "name": "to",
          "type": "address"
        },
        {
          "indexed": true,
          "internalType": "uint256",
          "name": "tokenId",
          "type": "uint256"
        }
      ],
      "name": "Transfer",
      "type": "event"
    },
    {
      "anonymous": false,
      "inputs": [
        {
          "indexed": false,
          "internalType": "address",
          "name": "account",
          "type": "address"
        }
      ],
      "name": "Unpaused",
      "type": "event"
    },
    {
      "anonymous": false,
      "inputs": [
        {
          "indexed": true,
          "internalType": "address",
          "name": "voter",
          "type": "address"
        },
        {
          "indexed": true,
          "internalType": "uint256",
          "name": "grantId",
          "type": "uint256"
        },
        {
          "indexed": false,
          "internalType": "bool",
          "name": "support",
          "type": "bool"
        }
      ],
      "name": "Voted",
      "type": "event"
    },
    {
      "inputs": [],
      "name": "_nativeToken",
      "outputs": [
        {
          "internalType": "contract IERC20",
          "name": "",
          "type": "address"
        }
      ],
      "stateMutability": "view",
      "type": "function"
    },
    {
      "inputs": [
        {
          "internalType": "address",
          "name": "_member",
          "type": "address"
        },
        {
          "internalType": "uint256",
          "name": "_votePower",
          "type": "uint256"
        }
      ],
      "name": "addMember",
      "outputs": [],
      "stateMutability": "nonpayable",
      "type": "function"
    },
    {
      "inputs": [
        {
          "internalType": "address",
          "name": "to",
          "type": "address"
        },
        {
          "internalType": "uint256",
          "name": "tokenId",
          "type": "uint256"
        }
      ],
      "name": "approve",
      "outputs": [],
      "stateMutability": "nonpayable",
      "type": "function"
    },
    {
      "inputs": [
        {
          "internalType": "uint256",
          "name": "proposalId",
          "type": "uint256"
        }
      ],
      "name": "approveProposal",
      "outputs": [],
      "stateMutability": "nonpayable",
      "type": "function"
    },
    {
      "inputs": [
        {
          "internalType": "address",
          "name": "owner",
          "type": "address"
        }
      ],
      "name": "balanceOf",
      "outputs": [
        {
          "internalType": "uint256",
          "name": "",
          "type": "uint256"
        }
      ],
      "stateMutability": "view",
      "type": "function"
    },
    {
      "inputs": [
        {
          "internalType": "uint256",
          "name": "grantId",
          "type": "uint256"
        }
      ],
      "name": "claimGrant",
      "outputs": [],
      "stateMutability": "nonpayable",
      "type": "function"
    },
    {
      "inputs": [
        {
          "internalType": "string",
          "name": "description",
          "type": "string"
        },
        {
          "internalType": "uint256",
          "name": "amountRequired",
          "type": "uint256"
        }
      ],
      "name": "createProposal",
      "outputs": [],
      "stateMutability": "nonpayable",
      "type": "function"
    },
    {
      "inputs": [
        {
          "internalType": "uint256",
          "name": "proposalId",
          "type": "uint256"
        },
        {
          "internalType": "uint256",
          "name": "amount",
          "type": "uint256"
        }
      ],
      "name": "donateToProposal",
      "outputs": [],
      "stateMutability": "nonpayable",
      "type": "function"
    },
    {
      "inputs": [],
      "name": "eduBaseContract",
      "outputs": [
        {
          "internalType": "contract IEduBase",
          "name": "",
          "type": "address"
        }
      ],
      "stateMutability": "view",
      "type": "function"
    },
    {
      "inputs": [
        {
          "internalType": "uint256",
          "name": "tokenId",
          "type": "uint256"
        }
      ],
      "name": "getApproved",
      "outputs": [
        {
          "internalType": "address",
          "name": "",
          "type": "address"
        }
      ],
      "stateMutability": "view",
      "type": "function"
    },
    {
      "inputs": [
        {
          "internalType": "uint256",
          "name": "proposalId",
          "type": "uint256"
        }
      ],
      "name": "getProposal",
      "outputs": [
        {
          "components": [
            {
              "internalType": "uint256",
              "name": "id",
              "type": "uint256"
            },
            {
              "internalType": "string",
              "name": "description",
              "type": "string"
            },
            {
              "internalType": "uint256",
              "name": "voteCount",
              "type": "uint256"
            },
            {
              "internalType": "uint256",
              "name": "amountRequired",
              "type": "uint256"
            },
            {
              "internalType": "bool",
              "name": "executed",
              "type": "bool"
            },
            {
              "internalType": "enum EduBaseGovernance.ProposalStatus",
              "name": "status",
              "type": "uint8"
            },
            {
              "internalType": "address[]",
              "name": "eligibleStudents",
              "type": "address[]"
            }
          ],
          "internalType": "struct EduBaseGovernance.Proposal",
          "name": "",
          "type": "tuple"
        }
      ],
      "stateMutability": "view",
      "type": "function"
    },
    {
      "inputs": [],
      "name": "getTopStudentsFromEduBase",
      "outputs": [
        {
          "internalType": "address[]",
          "name": "",
          "type": "address[]"
        }
      ],
      "stateMutability": "view",
      "type": "function"
    },
    {
      "inputs": [],
      "name": "grantCount",
      "outputs": [
        {
          "internalType": "uint256",
          "name": "",
          "type": "uint256"
        }
      ],
      "stateMutability": "view",
      "type": "function"
    },
    {
      "inputs": [
        {
          "internalType": "address",
          "name": "owner",
          "type": "address"
        },
        {
          "internalType": "address",
          "name": "operator",
          "type": "address"
        }
      ],
      "name": "isApprovedForAll",
      "outputs": [
        {
          "internalType": "bool",
          "name": "",
          "type": "bool"
        }
      ],
      "stateMutability": "view",
      "type": "function"
    },
    {
      "inputs": [
        {
          "internalType": "address",
          "name": "",
          "type": "address"
        }
      ],
      "name": "isMember",
      "outputs": [
        {
          "internalType": "bool",
          "name": "",
          "type": "bool"
        }
      ],
      "stateMutability": "view",
      "type": "function"
    },
    {
      "inputs": [
        {
          "internalType": "address",
          "name": "",
          "type": "address"
        }
      ],
      "name": "memberData",
      "outputs": [
        {
          "internalType": "address",
          "name": "memberAddress",
          "type": "address"
        },
        {
          "internalType": "enum EduBaseGovernance.MembershipTier",
          "name": "tier",
          "type": "uint8"
        },
        {
          "internalType": "uint256",
          "name": "engagementReward",
          "type": "uint256"
        },
        {
          "internalType": "uint256",
          "name": "NFTId",
          "type": "uint256"
        },
        {
          "internalType": "bool",
          "name": "joined",
          "type": "bool"
        },
        {
          "internalType": "uint256",
          "name": "votePower",
          "type": "uint256"
        }
      ],
      "stateMutability": "view",
      "type": "function"
    },
    {
      "inputs": [],
      "name": "minimumVotesRequired",
      "outputs": [
        {
          "internalType": "uint256",
          "name": "",
          "type": "uint256"
        }
      ],
      "stateMutability": "view",
      "type": "function"
    },
    {
      "inputs": [],
      "name": "name",
      "outputs": [
        {
          "internalType": "string",
          "name": "",
          "type": "string"
        }
      ],
      "stateMutability": "view",
      "type": "function"
    },
    {
      "inputs": [],
      "name": "nftTokenId",
      "outputs": [
        {
          "internalType": "uint256",
          "name": "",
          "type": "uint256"
        }
      ],
      "stateMutability": "view",
      "type": "function"
    },
    {
      "inputs": [],
      "name": "owner",
      "outputs": [
        {
          "internalType": "address",
          "name": "",
          "type": "address"
        }
      ],
      "stateMutability": "view",
      "type": "function"
    },
    {
      "inputs": [
        {
          "internalType": "uint256",
          "name": "tokenId",
          "type": "uint256"
        }
      ],
      "name": "ownerOf",
      "outputs": [
        {
          "internalType": "address",
          "name": "",
          "type": "address"
        }
      ],
      "stateMutability": "view",
      "type": "function"
    },
    {
      "inputs": [],
      "name": "paused",
      "outputs": [
        {
          "internalType": "bool",
          "name": "",
          "type": "bool"
        }
      ],
      "stateMutability": "view",
      "type": "function"
    },
    {
      "inputs": [],
      "name": "proposalCount",
      "outputs": [
        {
          "internalType": "uint256",
          "name": "",
          "type": "uint256"
        }
      ],
      "stateMutability": "view",
      "type": "function"
    },
    {
      "inputs": [],
      "name": "proposalDeadline",
      "outputs": [
        {
          "internalType": "uint256",
          "name": "",
          "type": "uint256"
        }
      ],
      "stateMutability": "view",
      "type": "function"
    },
    {
      "inputs": [
        {
          "internalType": "address",
          "name": "",
          "type": "address"
        },
        {
          "internalType": "uint256",
          "name": "",
          "type": "uint256"
        }
      ],
      "name": "proposalMap",
      "outputs": [
        {
          "internalType": "uint256",
          "name": "",
          "type": "uint256"
        }
      ],
      "stateMutability": "view",
      "type": "function"
    },
    {
      "inputs": [
        {
          "internalType": "uint256",
          "name": "",
          "type": "uint256"
        }
      ],
      "name": "proposals",
      "outputs": [
        {
          "internalType": "uint256",
          "name": "id",
          "type": "uint256"
        },
        {
          "internalType": "string",
          "name": "description",
          "type": "string"
        },
        {
          "internalType": "uint256",
          "name": "voteCount",
          "type": "uint256"
        },
        {
          "internalType": "uint256",
          "name": "amountRequired",
          "type": "uint256"
        },
        {
          "internalType": "bool",
          "name": "executed",
          "type": "bool"
        },
        {
          "internalType": "enum EduBaseGovernance.ProposalStatus",
          "name": "status",
          "type": "uint8"
        }
      ],
      "stateMutability": "view",
      "type": "function"
    },
    {
      "inputs": [],
      "name": "renounceOwnership",
      "outputs": [],
      "stateMutability": "nonpayable",
      "type": "function"
    },
    {
      "inputs": [
        {
          "internalType": "address",
          "name": "from",
          "type": "address"
        },
        {
          "internalType": "address",
          "name": "to",
          "type": "address"
        },
        {
          "internalType": "uint256",
          "name": "tokenId",
          "type": "uint256"
        }
      ],
      "name": "safeTransferFrom",
      "outputs": [],
      "stateMutability": "nonpayable",
      "type": "function"
    },
    {
      "inputs": [
        {
          "internalType": "address",
          "name": "from",
          "type": "address"
        },
        {
          "internalType": "address",
          "name": "to",
          "type": "address"
        },
        {
          "internalType": "uint256",
          "name": "tokenId",
          "type": "uint256"
        },
        {
          "internalType": "bytes",
          "name": "data",
          "type": "bytes"
        }
      ],
      "name": "safeTransferFrom",
      "outputs": [],
      "stateMutability": "nonpayable",
      "type": "function"
    },
    {
      "inputs": [
        {
          "internalType": "address",
          "name": "operator",
          "type": "address"
        },
        {
          "internalType": "bool",
          "name": "approved",
          "type": "bool"
        }
      ],
      "name": "setApprovalForAll",
      "outputs": [],
      "stateMutability": "nonpayable",
      "type": "function"
    },
    {
      "inputs": [
        {
          "internalType": "address",
          "name": "eduBaseAddress",
          "type": "address"
        }
      ],
      "name": "setEduBaseContract",
      "outputs": [],
      "stateMutability": "nonpayable",
      "type": "function"
    },
    {
      "inputs": [
        {
          "internalType": "bytes4",
          "name": "interfaceId",
          "type": "bytes4"
        }
      ],
      "name": "supportsInterface",
      "outputs": [
        {
          "internalType": "bool",
          "name": "",
          "type": "bool"
        }
      ],
      "stateMutability": "view",
      "type": "function"
    },
    {
      "inputs": [],
      "name": "symbol",
      "outputs": [
        {
          "internalType": "string",
          "name": "",
          "type": "string"
        }
      ],
      "stateMutability": "view",
      "type": "function"
    },
    {
      "inputs": [
        {
          "internalType": "uint256",
          "name": "tokenId",
          "type": "uint256"
        }
      ],
      "name": "tokenURI",
      "outputs": [
        {
          "internalType": "string",
          "name": "",
          "type": "string"
        }
      ],
      "stateMutability": "view",
      "type": "function"
    },
    {
      "inputs": [],
      "name": "totalGrantsClaimed",
      "outputs": [
        {
          "internalType": "uint256",
          "name": "",
          "type": "uint256"
        }
      ],
      "stateMutability": "view",
      "type": "function"
    },
    {
      "inputs": [
        {
          "internalType": "address",
          "name": "from",
          "type": "address"
        },
        {
          "internalType": "address",
          "name": "to",
          "type": "address"
        },
        {
          "internalType": "uint256",
          "name": "tokenId",
          "type": "uint256"
        }
      ],
      "name": "transferFrom",
      "outputs": [],
      "stateMutability": "nonpayable",
      "type": "function"
    },
    {
      "inputs": [
        {
          "internalType": "address",
          "name": "newOwner",
          "type": "address"
        }
      ],
      "name": "transferOwnership",
      "outputs": [],
      "stateMutability": "nonpayable",
      "type": "function"
    },
    {
      "inputs": [
        {
          "internalType": "uint256",
          "name": "proposalId",
          "type": "uint256"
        },
        {
          "internalType": "bool",
          "name": "support",
          "type": "bool"
        }
      ],
      "name": "voteOnProposal",
      "outputs": [],
      "stateMutability": "nonpayable",
      "type": "function"
    }
  ],
  "bytecode": "0x60806040526064600b5562127500600c553480156200001d57600080fd5b5060405162004e3838038062004e38833981810160405281019062000043919062000367565b6040518060400160405280601081526020017f456475476f7665726e616e63654e4654000000000000000000000000000000008152506040518060400160405280600781526020017f4544552d4e46540000000000000000000000000000000000000000000000000081525033600073ffffffffffffffffffffffffffffffffffffffff168173ffffffffffffffffffffffffffffffffffffffff1603620001255760006040517f1e4fbdf70000000000000000000000000000000000000000000000000000000081526004016200011c9190620003aa565b60405180910390fd5b62000136816200023960201b60201c565b50600180819055506000600260006101000a81548160ff02191690831515021790555081600390816200016a919062000641565b5080600490816200017c919062000641565b50505080600960006101000a81548173ffffffffffffffffffffffffffffffffffffffff021916908373ffffffffffffffffffffffffffffffffffffffff160217905550600073ffffffffffffffffffffffffffffffffffffffff168173ffffffffffffffffffffffffffffffffffffffff160362000232576040517f08c379a0000000000000000000000000000000000000000000000000000000008152600401620002299062000789565b60405180910390fd5b50620007ab565b60008060009054906101000a900473ffffffffffffffffffffffffffffffffffffffff169050816000806101000a81548173ffffffffffffffffffffffffffffffffffffffff021916908373ffffffffffffffffffffffffffffffffffffffff1602179055508173ffffffffffffffffffffffffffffffffffffffff168173ffffffffffffffffffffffffffffffffffffffff167f8be0079c531659141344cd1fd0a4f28419497f9722a3daafe3b4186f6b6457e060405160405180910390a35050565b600080fd5b600073ffffffffffffffffffffffffffffffffffffffff82169050919050565b60006200032f8262000302565b9050919050565b620003418162000322565b81146200034d57600080fd5b50565b600081519050620003618162000336565b92915050565b60006020828403121562000380576200037f620002fd565b5b6000620003908482850162000350565b91505092915050565b620003a48162000322565b82525050565b6000602082019050620003c1600083018462000399565b92915050565b600081519050919050565b7f4e487b7100000000000000000000000000000000000000000000000000000000600052604160045260246000fd5b7f4e487b7100000000000000000000000000000000000000000000000000000000600052602260045260246000fd5b600060028204905060018216806200044957607f821691505b6020821081036200045f576200045e62000401565b5b50919050565b60008190508160005260206000209050919050565b60006020601f8301049050919050565b600082821b905092915050565b600060088302620004c97fffffffffffffffffffffffffffffffffffffffffffffffffffffffffffffffff826200048a565b620004d586836200048a565b95508019841693508086168417925050509392505050565b6000819050919050565b6000819050919050565b6000620005226200051c6200051684620004ed565b620004f7565b620004ed565b9050919050565b6000819050919050565b6200053e8362000501565b620005566200054d8262000529565b84845462000497565b825550505050565b600090565b6200056d6200055e565b6200057a81848462000533565b505050565b5b81811015620005a2576200059660008262000563565b60018101905062000580565b5050565b601f821115620005f157620005bb8162000465565b620005c6846200047a565b81016020851015620005d6578190505b620005ee620005e5856200047a565b8301826200057f565b50505b505050565b600082821c905092915050565b60006200061660001984600802620005f6565b1980831691505092915050565b600062000631838362000603565b9150826002028217905092915050565b6200064c82620003c7565b67ffffffffffffffff811115620006685762000667620003d2565b5b62000674825462000430565b62000681828285620005a6565b600060209050601f831160018114620006b95760008415620006a4578287015190505b620006b0858262000623565b86555062000720565b601f198416620006c98662000465565b60005b82811015620006f357848901518255600182019150602085019450602081019050620006cc565b868310156200071357848901516200070f601f89168262000603565b8355505b6001600288020188555050505b505050505050565b600082825260208201905092915050565b7f496e76616c696420746f6b656e20616464726573730000000000000000000000600082015250565b60006200077160158362000728565b91506200077e8262000739565b602082019050919050565b60006020820190508181036000830152620007a48162000762565b9050919050565b61467d80620007bb6000396000f3fe608060405234801561001057600080fd5b50600436106102325760003560e01c80637e83057411610130578063b88d4fde116100b8578063d81a05531161007c578063d81a055314610695578063da35c664146106b3578063e985e9c5146106d1578063eabb884b14610701578063f2fde38b1461073157610232565b8063b88d4fde146105dd578063bbc3e58e146105f9578063c7f758a814610617578063c87b56dd14610647578063cab426721461067757610232565b806398041ea3116100ff57806398041ea31461053b57806398951b5614610557578063a22cb46514610573578063a230c5241461058f578063a912ffe2146105bf57610232565b80637e830574146104ac5780638da5cb5b146104ca5780639107d08e146104e857806395d89b411461051d57610232565b8063321bf975116101be5780636a0a1f8e116101825780636a0a1f8e1461041a57806370a0823114610436578063715018a61461046657806375c71753146104705780637ce1f8441461048e57610232565b8063321bf9751461037857806335facf781461039457806342842e0e146103b05780635c975abb146103cc5780636352211e146103ea57610232565b8063081812fc11610205578063081812fc146102d6578063095ea7b314610306578063156349ad146103225780631614665c1461034057806323b872dd1461035c57610232565b8063013cf08b1461023757806301ffc9a71461026c57806304f2f05b1461029c57806306fdde03146102b8575b600080fd5b610251600480360381019061024c9190612fe8565b61074d565b60405161026396959493929190613146565b60405180910390f35b61028660048036038101906102819190613206565b61082b565b6040516102939190613233565b60405180910390f35b6102b660048036038101906102b1919061324e565b61090d565b005b6102c0610b18565b6040516102cd919061328e565b60405180910390f35b6102f060048036038101906102eb9190612fe8565b610baa565b6040516102fd91906132f1565b60405180910390f35b610320600480360381019061031b9190613338565b610bc6565b005b61032a610bdc565b6040516103379190613378565b60405180910390f35b61035a600480360381019061035591906133bf565b610be2565b005b610376600480360381019061037191906133ff565b610d69565b005b610392600480360381019061038d9190613452565b610e6b565b005b6103ae60048036038101906103a991906135b4565b610eb7565b005b6103ca60048036038101906103c591906133ff565b611188565b005b6103d46111a8565b6040516103e19190613233565b60405180910390f35b61040460048036038101906103ff9190612fe8565b6111bf565b60405161041191906132f1565b60405180910390f35b610434600480360381019061042f9190612fe8565b6111d1565b005b610450600480360381019061044b9190613452565b6115b0565b60405161045d9190613378565b60405180910390f35b61046e61166a565b005b61047861167e565b6040516104859190613378565b60405180910390f35b610496611684565b6040516104a39190613378565b60405180910390f35b6104b461168a565b6040516104c19190613378565b60405180910390f35b6104d2611690565b6040516104df91906132f1565b60405180910390f35b61050260048036038101906104fd9190613452565b6116b9565b60405161051496959493929190613658565b60405180910390f35b61052561172f565b604051610532919061328e565b60405180910390f35b61055560048036038101906105509190613338565b6117c1565b005b610571600480360381019061056c9190612fe8565b611925565b005b61058d600480360381019061058891906136b9565b611b0e565b005b6105a960048036038101906105a49190613452565b611b24565b6040516105b69190613233565b60405180910390f35b6105c7611b44565b6040516105d491906137b7565b60405180910390f35b6105f760048036038101906105f2919061387a565b611be1565b005b610601611bfe565b60405161060e919061395c565b60405180910390f35b610631600480360381019061062c9190612fe8565b611c24565b60405161063e9190613b00565b60405180910390f35b610661600480360381019061065c9190612fe8565b611de5565b60405161066e919061328e565b60405180910390f35b61067f611e4e565b60405161068c9190613378565b60405180910390f35b61069d611e54565b6040516106aa9190613b43565b60405180910390f35b6106bb611e7a565b6040516106c89190613378565b60405180910390f35b6106eb60048036038101906106e69190613b5e565b611e80565b6040516106f89190613233565b60405180910390f35b61071b60048036038101906107169190613338565b611f14565b6040516107289190613378565b60405180910390f35b61074b60048036038101906107469190613452565b611f45565b005b601460205280600052604060002060009150905080600001549080600101805461077690613bcd565b80601f01602080910402602001604051908101604052809291908181526020018280546107a290613bcd565b80156107ef5780601f106107c4576101008083540402835291602001916107ef565b820191906000526020600020905b8154815290600101906020018083116107d257829003601f168201915b5050505050908060020154908060030154908060040160009054906101000a900460ff16908060040160019054906101000a900460ff16905086565b60007f80ac58cd000000000000000000000000000000000000000000000000000000007bffffffffffffffffffffffffffffffffffffffffffffffffffffffff1916827bffffffffffffffffffffffffffffffffffffffffffffffffffffffff191614806108f657507f5b5e139f000000000000000000000000000000000000000000000000000000007bffffffffffffffffffffffffffffffffffffffffffffffffffffffff1916827bffffffffffffffffffffffffffffffffffffffffffffffffffffffff1916145b80610906575061090582611fcb565b5b9050919050565b610915612035565b6000601460008481526020019081526020016000209050600060048111156109405761093f6130cf565b5b8160040160019054906101000a900460ff166004811115610964576109636130cf565b5b146109a4576040517f08c379a000000000000000000000000000000000000000000000000000000000815260040161099b90613c4a565b60405180910390fd5b600960009054906101000a900473ffffffffffffffffffffffffffffffffffffffff1673ffffffffffffffffffffffffffffffffffffffff166323b872dd3330856040518463ffffffff1660e01b8152600401610a0393929190613c6a565b6020604051808303816000875af1158015610a22573d6000803e3d6000fd5b505050506040513d601f19601f82011682018060405250810190610a469190613cb6565b50600d6000815480929190610a5a90613d12565b9190505550610a6b33600d5461207b565b3373ffffffffffffffffffffffffffffffffffffffff167fa4a6dd06047d295dce17022e052037e4894d99fb875c1b57fb31d3c32eed584e600d54604051610ab39190613378565b60405180910390a23373ffffffffffffffffffffffffffffffffffffffff167f4b0304ab2f313234b1cea012339c8f8c3bf2c8bb357d81a579cfdb35d2e3d0308385604051610b03929190613d5a565b60405180910390a250610b14612174565b5050565b606060038054610b2790613bcd565b80601f0160208091040260200160405190810160405280929190818152602001828054610b5390613bcd565b8015610ba05780601f10610b7557610100808354040283529160200191610ba0565b820191906000526020600020905b815481529060010190602001808311610b8357829003601f168201915b5050505050905090565b6000610bb58261217d565b50610bbf82612205565b9050919050565b610bd88282610bd3612242565b61224a565b5050565b600b5481565b601260003373ffffffffffffffffffffffffffffffffffffffff1673ffffffffffffffffffffffffffffffffffffffff16815260200190815260200160002060009054906101000a900460ff16610c6e576040517f08c379a0000000000000000000000000000000000000000000000000000000008152600401610c6590613dcf565b60405180910390fd5b600060146000848152602001908152602001600020905060006004811115610c9957610c986130cf565b5b8160040160019054906101000a900460ff166004811115610cbd57610cbc6130cf565b5b14610cfd576040517f08c379a0000000000000000000000000000000000000000000000000000000008152600401610cf490613e3b565b60405180910390fd5b81610d09576000610d0c565b60015b60ff16816002016000828254610d229190613e5b565b92505081905550600b54816002015410610d645760028160040160016101000a81548160ff02191690836004811115610d5e57610d5d6130cf565b5b02179055505b505050565b600073ffffffffffffffffffffffffffffffffffffffff168273ffffffffffffffffffffffffffffffffffffffff1603610ddb5760006040517f64a0ae92000000000000000000000000000000000000000000000000000000008152600401610dd291906132f1565b60405180910390fd5b6000610def8383610dea612242565b61225c565b90508373ffffffffffffffffffffffffffffffffffffffff168173ffffffffffffffffffffffffffffffffffffffff1614610e65578382826040517f64283d7b000000000000000000000000000000000000000000000000000000008152600401610e5c93929190613e8f565b60405180910390fd5b50505050565b610e73612476565b80600a60006101000a81548173ffffffffffffffffffffffffffffffffffffffff021916908373ffffffffffffffffffffffffffffffffffffffff16021790555050565b6000600a60009054906101000a900473ffffffffffffffffffffffffffffffffffffffff1673ffffffffffffffffffffffffffffffffffffffff1663c98b94e46040518163ffffffff1660e01b8152600401600060405180830381865afa158015610f26573d6000803e3d6000fd5b505050506040513d6000823e3d601f19601f82011682018060405250810190610f4f9190613fa3565b5111610f90576040517f08c379a0000000000000000000000000000000000000000000000000000000008152600401610f8790614038565b60405180910390fd5b6000600a60009054906101000a900473ffffffffffffffffffffffffffffffffffffffff1673ffffffffffffffffffffffffffffffffffffffff1663c98b94e46040518163ffffffff1660e01b8152600401600060405180830381865afa158015610fff573d6000803e3d6000fd5b505050506040513d6000823e3d601f19601f820116820180604052508101906110289190613fa3565b90506010600081548092919061103d90613d12565b91905055506040518060e0016040528060105481526020018481526020016000815260200183815260200160001515815260200160006004811115611085576110846130cf565b5b8152602001828152506014600060105481526020019081526020016000206000820151816000015560208201518160010190816110c291906141fa565b50604082015181600201556060820151816003015560808201518160040160006101000a81548160ff02191690831515021790555060a08201518160040160016101000a81548160ff02191690836004811115611122576111216130cf565b5b021790555060c0820151816005019080519060200190611143929190612ea6565b509050506010547ff5dc0da9afa6d080780a49fd8c680f03d2ddf3c067cd6d0c85360c096644d2d3848460405161117b9291906142cc565b60405180910390a2505050565b6111a383838360405180602001604052806000815250611be1565b505050565b6000600260009054906101000a900460ff16905090565b60006111ca8261217d565b9050919050565b6111d9612035565b6000600a60009054906101000a900473ffffffffffffffffffffffffffffffffffffffff1673ffffffffffffffffffffffffffffffffffffffff1663c98b94e46040518163ffffffff1660e01b8152600401600060405180830381865afa158015611248573d6000803e3d6000fd5b505050506040513d6000823e3d601f19601f820116820180604052508101906112719190613fa3565b51116112b2576040517f08c379a00000000000000000000000000000000000000000000000000000000081526004016112a990614038565b60405180910390fd5b60006015600083815260200190815260200160002090508060050160009054906101000a900460ff1661131a576040517f08c379a000000000000000000000000000000000000000000000000000000000815260040161131190614348565b60405180910390fd5b8060050160019054906101000a900460ff161561136c576040517f08c379a0000000000000000000000000000000000000000000000000000000008152600401611363906143b4565b60405180910390fd5b8060010160009054906101000a900473ffffffffffffffffffffffffffffffffffffffff1673ffffffffffffffffffffffffffffffffffffffff163373ffffffffffffffffffffffffffffffffffffffff16146113fe576040517f08c379a00000000000000000000000000000000000000000000000000000000081526004016113f590614420565b60405180910390fd5b60018160050160016101000a81548160ff0219169083151502179055508060020154601160008282546114319190613e5b565b92505081905550600960009054906101000a900473ffffffffffffffffffffffffffffffffffffffff1673ffffffffffffffffffffffffffffffffffffffff1663a9059cbb3383600201546040518363ffffffff1660e01b8152600401611499929190614440565b6020604051808303816000875af11580156114b8573d6000803e3d6000fd5b505050506040513d601f19601f820116820180604052508101906114dc9190613cb6565b50600d60008154809291906114f090613d12565b919050555061150133600d5461207b565b3373ffffffffffffffffffffffffffffffffffffffff167fa4a6dd06047d295dce17022e052037e4894d99fb875c1b57fb31d3c32eed584e600d546040516115499190613378565b60405180910390a23373ffffffffffffffffffffffffffffffffffffffff16827f617847aec64ffd2e4a19d71c3e0062f744212a6f13486fec81d004b3a5c8fb2e836002015460405161159c9190613378565b60405180910390a3506115ad612174565b50565b60008073ffffffffffffffffffffffffffffffffffffffff168273ffffffffffffffffffffffffffffffffffffffff16036116235760006040517f89c62b6400000000000000000000000000000000000000000000000000000000815260040161161a91906132f1565b60405180910390fd5b600660008373ffffffffffffffffffffffffffffffffffffffff1673ffffffffffffffffffffffffffffffffffffffff168152602001908152602001600020549050919050565b611672612476565b61167c60006124fd565b565b60115481565b600c5481565b600d5481565b60008060009054906101000a900473ffffffffffffffffffffffffffffffffffffffff16905090565b600e6020528060005260406000206000915090508060000160009054906101000a900473ffffffffffffffffffffffffffffffffffffffff16908060000160149054906101000a900460ff16908060010154908060020154908060030160009054906101000a900460ff16908060040154905086565b60606004805461173e90613bcd565b80601f016020809104026020016040519081016040528092919081815260200182805461176a90613bcd565b80156117b75780601f1061178c576101008083540402835291602001916117b7565b820191906000526020600020905b81548152906001019060200180831161179a57829003601f168201915b5050505050905090565b6117c9612476565b60006040518060c001604052808473ffffffffffffffffffffffffffffffffffffffff16815260200160006003811115611806576118056130cf565b5b8152602001600081526020016000815260200160011515815260200183815250905080600e60008573ffffffffffffffffffffffffffffffffffffffff1673ffffffffffffffffffffffffffffffffffffffff16815260200190815260200160002060008201518160000160006101000a81548173ffffffffffffffffffffffffffffffffffffffff021916908373ffffffffffffffffffffffffffffffffffffffff16021790555060208201518160000160146101000a81548160ff021916908360038111156118da576118d96130cf565b5b0217905550604082015181600101556060820151816002015560808201518160030160006101000a81548160ff02191690831515021790555060a08201518160040155905050505050565b61192d612476565b600060146000838152602001908152602001600020905060026004811115611958576119576130cf565b5b8160040160019054906101000a900460ff16600481111561197c5761197b6130cf565b5b146119bc576040517f08c379a00000000000000000000000000000000000000000000000000000000081526004016119b3906144b5565b60405180910390fd5b60038160040160016101000a81548160ff021916908360048111156119e4576119e36130cf565b5b02179055506000600f60008154809291906119fe90613d12565b9190505590506000601560008381526020019081526020016000209050818160000181905550338160010160006101000a81548173ffffffffffffffffffffffffffffffffffffffff021916908373ffffffffffffffffffffffffffffffffffffffff1602179055508260030154816002018190555060018160050160006101000a81548160ff0219169083151502179055508060010160009054906101000a900473ffffffffffffffffffffffffffffffffffffffff1673ffffffffffffffffffffffffffffffffffffffff16827fc3214bc8fdca07d764b62d3a80457aac7a4ed9c391685793b778a7a231f627438560030154604051611b009190613378565b60405180910390a350505050565b611b20611b19612242565b83836125c1565b5050565b60126020528060005260406000206000915054906101000a900460ff1681565b6060600a60009054906101000a900473ffffffffffffffffffffffffffffffffffffffff1673ffffffffffffffffffffffffffffffffffffffff1663c98b94e46040518163ffffffff1660e01b8152600401600060405180830381865afa158015611bb3573d6000803e3d6000fd5b505050506040513d6000823e3d601f19601f82011682018060405250810190611bdc9190613fa3565b905090565b611bec848484610d69565b611bf884848484612730565b50505050565b600a60009054906101000a900473ffffffffffffffffffffffffffffffffffffffff1681565b611c2c612f30565b601460008381526020019081526020016000206040518060e001604052908160008201548152602001600182018054611c6490613bcd565b80601f0160208091040260200160405190810160405280929190818152602001828054611c9090613bcd565b8015611cdd5780601f10611cb257610100808354040283529160200191611cdd565b820191906000526020600020905b815481529060010190602001808311611cc057829003601f168201915b5050505050815260200160028201548152602001600382015481526020016004820160009054906101000a900460ff161515151581526020016004820160019054906101000a900460ff166004811115611d3a57611d396130cf565b5b6004811115611d4c57611d4b6130cf565b5b815260200160058201805480602002602001604051908101604052809291908181526020018280548015611dd557602002820191906000526020600020905b8160009054906101000a900473ffffffffffffffffffffffffffffffffffffffff1673ffffffffffffffffffffffffffffffffffffffff1681526020019060010190808311611d8b575b5050505050815250509050919050565b6060611df08261217d565b506000611dfb6128e7565b90506000815111611e1b5760405180602001604052806000815250611e46565b80611e25846128fe565b604051602001611e36929190614511565b6040516020818303038152906040525b915050919050565b600f5481565b600960009054906101000a900473ffffffffffffffffffffffffffffffffffffffff1681565b60105481565b6000600860008473ffffffffffffffffffffffffffffffffffffffff1673ffffffffffffffffffffffffffffffffffffffff16815260200190815260200160002060008373ffffffffffffffffffffffffffffffffffffffff1673ffffffffffffffffffffffffffffffffffffffff16815260200190815260200160002060009054906101000a900460ff16905092915050565b60136020528160005260406000208181548110611f3057600080fd5b90600052602060002001600091509150505481565b611f4d612476565b600073ffffffffffffffffffffffffffffffffffffffff168173ffffffffffffffffffffffffffffffffffffffff1603611fbf5760006040517f1e4fbdf7000000000000000000000000000000000000000000000000000000008152600401611fb691906132f1565b60405180910390fd5b611fc8816124fd565b50565b60007f01ffc9a7000000000000000000000000000000000000000000000000000000007bffffffffffffffffffffffffffffffffffffffffffffffffffffffff1916827bffffffffffffffffffffffffffffffffffffffffffffffffffffffff1916149050919050565b600260015403612071576040517f3ee5aeb500000000000000000000000000000000000000000000000000000000815260040160405180910390fd5b6002600181905550565b600073ffffffffffffffffffffffffffffffffffffffff168273ffffffffffffffffffffffffffffffffffffffff16036120ed5760006040517f64a0ae920000000000000000000000000000000000000000000000000000000081526004016120e491906132f1565b60405180910390fd5b60006120fb8383600061225c565b9050600073ffffffffffffffffffffffffffffffffffffffff168173ffffffffffffffffffffffffffffffffffffffff161461216f5760006040517f73c6ac6e00000000000000000000000000000000000000000000000000000000815260040161216691906132f1565b60405180910390fd5b505050565b60018081905550565b600080612189836129cc565b9050600073ffffffffffffffffffffffffffffffffffffffff168173ffffffffffffffffffffffffffffffffffffffff16036121fc57826040517f7e2732890000000000000000000000000000000000000000000000000000000081526004016121f39190613378565b60405180910390fd5b80915050919050565b60006007600083815260200190815260200160002060009054906101000a900473ffffffffffffffffffffffffffffffffffffffff169050919050565b600033905090565b6122578383836001612a09565b505050565b600080612268846129cc565b9050600073ffffffffffffffffffffffffffffffffffffffff168373ffffffffffffffffffffffffffffffffffffffff16146122aa576122a9818486612bce565b5b600073ffffffffffffffffffffffffffffffffffffffff168173ffffffffffffffffffffffffffffffffffffffff161461233b576122ec600085600080612a09565b6001600660008373ffffffffffffffffffffffffffffffffffffffff1673ffffffffffffffffffffffffffffffffffffffff168152602001908152602001600020600082825403925050819055505b600073ffffffffffffffffffffffffffffffffffffffff168573ffffffffffffffffffffffffffffffffffffffff16146123be576001600660008773ffffffffffffffffffffffffffffffffffffffff1673ffffffffffffffffffffffffffffffffffffffff168152602001908152602001600020600082825401925050819055505b846005600086815260200190815260200160002060006101000a81548173ffffffffffffffffffffffffffffffffffffffff021916908373ffffffffffffffffffffffffffffffffffffffff160217905550838573ffffffffffffffffffffffffffffffffffffffff168273ffffffffffffffffffffffffffffffffffffffff167fddf252ad1be2c89b69c2b068fc378daa952ba7f163c4a11628f55a4df523b3ef60405160405180910390a4809150509392505050565b61247e612242565b73ffffffffffffffffffffffffffffffffffffffff1661249c611690565b73ffffffffffffffffffffffffffffffffffffffff16146124fb576124bf612242565b6040517f118cdaa70000000000000000000000000000000000000000000000000000000081526004016124f291906132f1565b60405180910390fd5b565b60008060009054906101000a900473ffffffffffffffffffffffffffffffffffffffff169050816000806101000a81548173ffffffffffffffffffffffffffffffffffffffff021916908373ffffffffffffffffffffffffffffffffffffffff1602179055508173ffffffffffffffffffffffffffffffffffffffff168173ffffffffffffffffffffffffffffffffffffffff167f8be0079c531659141344cd1fd0a4f28419497f9722a3daafe3b4186f6b6457e060405160405180910390a35050565b600073ffffffffffffffffffffffffffffffffffffffff168273ffffffffffffffffffffffffffffffffffffffff160361263257816040517f5b08ba1800000000000000000000000000000000000000000000000000000000815260040161262991906132f1565b60405180910390fd5b80600860008573ffffffffffffffffffffffffffffffffffffffff1673ffffffffffffffffffffffffffffffffffffffff16815260200190815260200160002060008473ffffffffffffffffffffffffffffffffffffffff1673ffffffffffffffffffffffffffffffffffffffff16815260200190815260200160002060006101000a81548160ff0219169083151502179055508173ffffffffffffffffffffffffffffffffffffffff168373ffffffffffffffffffffffffffffffffffffffff167f17307eab39ab6107e8899845ad3d59bd9653f200f220920489ca2b5937696c31836040516127239190613233565b60405180910390a3505050565b60008373ffffffffffffffffffffffffffffffffffffffff163b11156128e1578273ffffffffffffffffffffffffffffffffffffffff1663150b7a02612774612242565b8685856040518563ffffffff1660e01b8152600401612796949392919061458a565b6020604051808303816000875af19250505080156127d257506040513d601f19601f820116820180604052508101906127cf91906145eb565b60015b612856573d8060008114612802576040519150601f19603f3d011682016040523d82523d6000602084013e612807565b606091505b50600081510361284e57836040517f64a0ae9200000000000000000000000000000000000000000000000000000000815260040161284591906132f1565b60405180910390fd5b805181602001fd5b63150b7a0260e01b7bffffffffffffffffffffffffffffffffffffffffffffffffffffffff1916817bffffffffffffffffffffffffffffffffffffffffffffffffffffffff1916146128df57836040517f64a0ae920000000000000000000000000000000000000000000000000000000081526004016128d691906132f1565b60405180910390fd5b505b50505050565b606060405180602001604052806000815250905090565b60606000600161290d84612c92565b01905060008167ffffffffffffffff81111561292c5761292b613489565b5b6040519080825280601f01601f19166020018201604052801561295e5781602001600182028036833780820191505090505b509050600082602001820190505b6001156129c1578080600190039150507f3031323334353637383961626364656600000000000000000000000000000000600a86061a8153600a85816129b5576129b4614618565b5b0494506000850361296c575b819350505050919050565b60006005600083815260200190815260200160002060009054906101000a900473ffffffffffffffffffffffffffffffffffffffff169050919050565b8080612a425750600073ffffffffffffffffffffffffffffffffffffffff168273ffffffffffffffffffffffffffffffffffffffff1614155b15612b76576000612a528461217d565b9050600073ffffffffffffffffffffffffffffffffffffffff168373ffffffffffffffffffffffffffffffffffffffff1614158015612abd57508273ffffffffffffffffffffffffffffffffffffffff168173ffffffffffffffffffffffffffffffffffffffff1614155b8015612ad05750612ace8184611e80565b155b15612b1257826040517fa9fbf51f000000000000000000000000000000000000000000000000000000008152600401612b0991906132f1565b60405180910390fd5b8115612b7457838573ffffffffffffffffffffffffffffffffffffffff168273ffffffffffffffffffffffffffffffffffffffff167f8c5be1e5ebec7d5bd14f71427d1e84f3dd0314c0f7b2291e5b200ac8c7c3b92560405160405180910390a45b505b836007600085815260200190815260200160002060006101000a81548173ffffffffffffffffffffffffffffffffffffffff021916908373ffffffffffffffffffffffffffffffffffffffff16021790555050505050565b612bd9838383612de5565b612c8d57600073ffffffffffffffffffffffffffffffffffffffff168373ffffffffffffffffffffffffffffffffffffffff1603612c4e57806040517f7e273289000000000000000000000000000000000000000000000000000000008152600401612c459190613378565b60405180910390fd5b81816040517f177e802f000000000000000000000000000000000000000000000000000000008152600401612c84929190614440565b60405180910390fd5b505050565b600080600090507a184f03e93ff9f4daa797ed6e38ed64bf6a1f0100000000000000008310612cf0577a184f03e93ff9f4daa797ed6e38ed64bf6a1f0100000000000000008381612ce657612ce5614618565b5b0492506040810190505b6d04ee2d6d415b85acef81000000008310612d2d576d04ee2d6d415b85acef81000000008381612d2357612d22614618565b5b0492506020810190505b662386f26fc100008310612d5c57662386f26fc100008381612d5257612d51614618565b5b0492506010810190505b6305f5e1008310612d85576305f5e1008381612d7b57612d7a614618565b5b0492506008810190505b6127108310612daa576127108381612da057612d9f614618565b5b0492506004810190505b60648310612dcd5760648381612dc357612dc2614618565b5b0492506002810190505b600a8310612ddc576001810190505b80915050919050565b60008073ffffffffffffffffffffffffffffffffffffffff168373ffffffffffffffffffffffffffffffffffffffff1614158015612e9d57508273ffffffffffffffffffffffffffffffffffffffff168473ffffffffffffffffffffffffffffffffffffffff161480612e5e5750612e5d8484611e80565b5b80612e9c57508273ffffffffffffffffffffffffffffffffffffffff16612e8483612205565b73ffffffffffffffffffffffffffffffffffffffff16145b5b90509392505050565b828054828255906000526020600020908101928215612f1f579160200282015b82811115612f1e5782518260006101000a81548173ffffffffffffffffffffffffffffffffffffffff021916908373ffffffffffffffffffffffffffffffffffffffff16021790555091602001919060010190612ec6565b5b509050612f2c9190612f81565b5090565b6040518060e001604052806000815260200160608152602001600081526020016000815260200160001515815260200160006004811115612f7457612f736130cf565b5b8152602001606081525090565b5b80821115612f9a576000816000905550600101612f82565b5090565b6000604051905090565b600080fd5b600080fd5b6000819050919050565b612fc581612fb2565b8114612fd057600080fd5b50565b600081359050612fe281612fbc565b92915050565b600060208284031215612ffe57612ffd612fa8565b5b600061300c84828501612fd3565b91505092915050565b61301e81612fb2565b82525050565b600081519050919050565b600082825260208201905092915050565b60005b8381101561305e578082015181840152602081019050613043565b60008484015250505050565b6000601f19601f8301169050919050565b600061308682613024565b613090818561302f565b93506130a0818560208601613040565b6130a98161306a565b840191505092915050565b60008115159050919050565b6130c9816130b4565b82525050565b7f4e487b7100000000000000000000000000000000000000000000000000000000600052602160045260246000fd5b6005811061310f5761310e6130cf565b5b50565b6000819050613120826130fe565b919050565b600061313082613112565b9050919050565b61314081613125565b82525050565b600060c08201905061315b6000830189613015565b818103602083015261316d818861307b565b905061317c6040830187613015565b6131896060830186613015565b61319660808301856130c0565b6131a360a0830184613137565b979650505050505050565b60007fffffffff0000000000000000000000000000000000000000000000000000000082169050919050565b6131e3816131ae565b81146131ee57600080fd5b50565b600081359050613200816131da565b92915050565b60006020828403121561321c5761321b612fa8565b5b600061322a848285016131f1565b91505092915050565b600060208201905061324860008301846130c0565b92915050565b6000806040838503121561326557613264612fa8565b5b600061327385828601612fd3565b925050602061328485828601612fd3565b9150509250929050565b600060208201905081810360008301526132a8818461307b565b905092915050565b600073ffffffffffffffffffffffffffffffffffffffff82169050919050565b60006132db826132b0565b9050919050565b6132eb816132d0565b82525050565b600060208201905061330660008301846132e2565b92915050565b613315816132d0565b811461332057600080fd5b50565b6000813590506133328161330c565b92915050565b6000806040838503121561334f5761334e612fa8565b5b600061335d85828601613323565b925050602061336e85828601612fd3565b9150509250929050565b600060208201905061338d6000830184613015565b92915050565b61339c816130b4565b81146133a757600080fd5b50565b6000813590506133b981613393565b92915050565b600080604083850312156133d6576133d5612fa8565b5b60006133e485828601612fd3565b92505060206133f5858286016133aa565b9150509250929050565b60008060006060848603121561341857613417612fa8565b5b600061342686828701613323565b935050602061343786828701613323565b925050604061344886828701612fd3565b9150509250925092565b60006020828403121561346857613467612fa8565b5b600061347684828501613323565b91505092915050565b600080fd5b600080fd5b7f4e487b7100000000000000000000000000000000000000000000000000000000600052604160045260246000fd5b6134c18261306a565b810181811067ffffffffffffffff821117156134e0576134df613489565b5b80604052505050565b60006134f3612f9e565b90506134ff82826134b8565b919050565b600067ffffffffffffffff82111561351f5761351e613489565b5b6135288261306a565b9050602081019050919050565b82818337600083830152505050565b600061355761355284613504565b6134e9565b90508281526020810184848401111561357357613572613484565b5b61357e848285613535565b509392505050565b600082601f83011261359b5761359a61347f565b5b81356135ab848260208601613544565b91505092915050565b600080604083850312156135cb576135ca612fa8565b5b600083013567ffffffffffffffff8111156135e9576135e8612fad565b5b6135f585828601613586565b925050602061360685828601612fd3565b9150509250929050565b60048110613621576136206130cf565b5b50565b600081905061363282613610565b919050565b600061364282613624565b9050919050565b61365281613637565b82525050565b600060c08201905061366d60008301896132e2565b61367a6020830188613649565b6136876040830187613015565b6136946060830186613015565b6136a160808301856130c0565b6136ae60a0830184613015565b979650505050505050565b600080604083850312156136d0576136cf612fa8565b5b60006136de85828601613323565b92505060206136ef858286016133aa565b9150509250929050565b600081519050919050565b600082825260208201905092915050565b6000819050602082019050919050565b61372e816132d0565b82525050565b60006137408383613725565b60208301905092915050565b6000602082019050919050565b6000613764826136f9565b61376e8185613704565b935061377983613715565b8060005b838110156137aa5781516137918882613734565b975061379c8361374c565b92505060018101905061377d565b5085935050505092915050565b600060208201905081810360008301526137d18184613759565b905092915050565b600067ffffffffffffffff8211156137f4576137f3613489565b5b6137fd8261306a565b9050602081019050919050565b600061381d613818846137d9565b6134e9565b90508281526020810184848401111561383957613838613484565b5b613844848285613535565b509392505050565b600082601f8301126138615761386061347f565b5b813561387184826020860161380a565b91505092915050565b6000806000806080858703121561389457613893612fa8565b5b60006138a287828801613323565b94505060206138b387828801613323565b93505060406138c487828801612fd3565b925050606085013567ffffffffffffffff8111156138e5576138e4612fad565b5b6138f18782880161384c565b91505092959194509250565b6000819050919050565b600061392261391d613918846132b0565b6138fd565b6132b0565b9050919050565b600061393482613907565b9050919050565b600061394682613929565b9050919050565b6139568161393b565b82525050565b6000602082019050613971600083018461394d565b92915050565b61398081612fb2565b82525050565b600082825260208201905092915050565b60006139a282613024565b6139ac8185613986565b93506139bc818560208601613040565b6139c58161306a565b840191505092915050565b6139d9816130b4565b82525050565b6139e881613125565b82525050565b600082825260208201905092915050565b6000613a0a826136f9565b613a1481856139ee565b9350613a1f83613715565b8060005b83811015613a50578151613a378882613734565b9750613a428361374c565b925050600181019050613a23565b5085935050505092915050565b600060e083016000830151613a756000860182613977565b5060208301518482036020860152613a8d8282613997565b9150506040830151613aa26040860182613977565b506060830151613ab56060860182613977565b506080830151613ac860808601826139d0565b5060a0830151613adb60a08601826139df565b5060c083015184820360c0860152613af382826139ff565b9150508091505092915050565b60006020820190508181036000830152613b1a8184613a5d565b905092915050565b6000613b2d82613929565b9050919050565b613b3d81613b22565b82525050565b6000602082019050613b586000830184613b34565b92915050565b60008060408385031215613b7557613b74612fa8565b5b6000613b8385828601613323565b9250506020613b9485828601613323565b9150509250929050565b7f4e487b7100000000000000000000000000000000000000000000000000000000600052602260045260246000fd5b60006002820490506001821680613be557607f821691505b602082108103613bf857613bf7613b9e565b5b50919050565b7f50726f706f73616c206e6f7420616363657074696e6720646f6e6174696f6e73600082015250565b6000613c3460208361302f565b9150613c3f82613bfe565b602082019050919050565b60006020820190508181036000830152613c6381613c27565b9050919050565b6000606082019050613c7f60008301866132e2565b613c8c60208301856132e2565b613c996040830184613015565b949350505050565b600081519050613cb081613393565b92915050565b600060208284031215613ccc57613ccb612fa8565b5b6000613cda84828501613ca1565b91505092915050565b7f4e487b7100000000000000000000000000000000000000000000000000000000600052601160045260246000fd5b6000613d1d82612fb2565b91507fffffffffffffffffffffffffffffffffffffffffffffffffffffffffffffffff8203613d4f57613d4e613ce3565b5b600182019050919050565b6000604082019050613d6f6000830185613015565b613d7c6020830184613015565b9392505050565b7f4e6f7420612076616c6964206d656d6265720000000000000000000000000000600082015250565b6000613db960128361302f565b9150613dc482613d83565b602082019050919050565b60006020820190508181036000830152613de881613dac565b9050919050565b7f50726f706f73616c206e6f74206f70656e20666f7220766f74696e6700000000600082015250565b6000613e25601c8361302f565b9150613e3082613def565b602082019050919050565b60006020820190508181036000830152613e5481613e18565b9050919050565b6000613e6682612fb2565b9150613e7183612fb2565b9250828201905080821115613e8957613e88613ce3565b5b92915050565b6000606082019050613ea460008301866132e2565b613eb16020830185613015565b613ebe60408301846132e2565b949350505050565b600067ffffffffffffffff821115613ee157613ee0613489565b5b602082029050602081019050919050565b600080fd5b600081519050613f068161330c565b92915050565b6000613f1f613f1a84613ec6565b6134e9565b90508083825260208201905060208402830185811115613f4257613f41613ef2565b5b835b81811015613f6b5780613f578882613ef7565b845260208401935050602081019050613f44565b5050509392505050565b600082601f830112613f8a57613f8961347f565b5b8151613f9a848260208601613f0c565b91505092915050565b600060208284031215613fb957613fb8612fa8565b5b600082015167ffffffffffffffff811115613fd757613fd6612fad565b5b613fe384828501613f75565b91505092915050565b7f43616c6c6572206973206e6f7420612073747564656e74000000000000000000600082015250565b600061402260178361302f565b915061402d82613fec565b602082019050919050565b6000602082019050818103600083015261405181614015565b9050919050565b60008190508160005260206000209050919050565b60006020601f8301049050919050565b600082821b905092915050565b6000600883026140ba7fffffffffffffffffffffffffffffffffffffffffffffffffffffffffffffffff8261407d565b6140c4868361407d565b95508019841693508086168417925050509392505050565b60006140f76140f26140ed84612fb2565b6138fd565b612fb2565b9050919050565b6000819050919050565b614111836140dc565b61412561411d826140fe565b84845461408a565b825550505050565b600090565b61413a61412d565b614145818484614108565b505050565b5b818110156141695761415e600082614132565b60018101905061414b565b5050565b601f8211156141ae5761417f81614058565b6141888461406d565b81016020851015614197578190505b6141ab6141a38561406d565b83018261414a565b50505b505050565b600082821c905092915050565b60006141d1600019846008026141b3565b1980831691505092915050565b60006141ea83836141c0565b9150826002028217905092915050565b61420382613024565b67ffffffffffffffff81111561421c5761421b613489565b5b6142268254613bcd565b61423182828561416d565b600060209050601f8311600181146142645760008415614252578287015190505b61425c85826141de565b8655506142c4565b601f19841661427286614058565b60005b8281101561429a57848901518255600182019150602085019450602081019050614275565b868310156142b757848901516142b3601f8916826141c0565b8355505b6001600288020188555050505b505050505050565b600060408201905081810360008301526142e6818561307b565b90506142f56020830184613015565b9392505050565b7f4772616e74206e6f7420617070726f7665640000000000000000000000000000600082015250565b600061433260128361302f565b915061433d826142fc565b602082019050919050565b6000602082019050818103600083015261436181614325565b9050919050565b7f4772616e7420616c726561647920636c61696d65640000000000000000000000600082015250565b600061439e60158361302f565b91506143a982614368565b602082019050919050565b600060208201905081810360008301526143cd81614391565b9050919050565b7f4e6f7420617574686f72697a6564000000000000000000000000000000000000600082015250565b600061440a600e8361302f565b9150614415826143d4565b602082019050919050565b60006020820190508181036000830152614439816143fd565b9050919050565b600060408201905061445560008301856132e2565b6144626020830184613015565b9392505050565b7f50726f706f73616c206e6f7420617070726f7665640000000000000000000000600082015250565b600061449f60158361302f565b91506144aa82614469565b602082019050919050565b600060208201905081810360008301526144ce81614492565b9050919050565b600081905092915050565b60006144eb82613024565b6144f581856144d5565b9350614505818560208601613040565b80840191505092915050565b600061451d82856144e0565b915061452982846144e0565b91508190509392505050565b600081519050919050565b600082825260208201905092915050565b600061455c82614535565b6145668185614540565b9350614576818560208601613040565b61457f8161306a565b840191505092915050565b600060808201905061459f60008301876132e2565b6145ac60208301866132e2565b6145b96040830185613015565b81810360608301526145cb8184614551565b905095945050505050565b6000815190506145e5816131da565b92915050565b60006020828403121561460157614600612fa8565b5b600061460f848285016145d6565b91505092915050565b7f4e487b7100000000000000000000000000000000000000000000000000000000600052601260045260246000fdfea2646970667358221220d5dc68d27ac6717e64e54da43341706c256d2ae95020d91c1650028cdc7ff3fc64736f6c63430008180033",
  "linkReferences": {},
  "deployedLinkReferences": {}
}