{
  "_format": "hh-sol-artifact-1",
  "contractName": "EduBase",
  "sourceName": "contracts/EduBase.sol",
  "abi": [
    {
      "inputs": [
        {
          "internalType": "address",
          "name": "tokenAddress",
          "type": "address"
        },
        {
          "internalType": "address",
          "name": "governanceContractAddress",
          "type": "address"
        }
      ],
      "stateMutability": "nonpayable",
      "type": "constructor"
    },
    {
      "inputs": [],
      "name": "EnforcedPause",
      "type": "error"
    },
    {
      "inputs": [],
      "name": "ExpectedPause",
      "type": "error"
    },
    {
      "inputs": [
        {
          "internalType": "address",
          "name": "owner",
          "type": "address"
        }
      ],
      "name": "OwnableInvalidOwner",
      "type": "error"
    },
    {
      "inputs": [
        {
          "internalType": "address",
          "name": "account",
          "type": "address"
        }
      ],
      "name": "OwnableUnauthorizedAccount",
      "type": "error"
    },
    {
      "inputs": [],
      "name": "ReentrancyGuardReentrantCall",
      "type": "error"
    },
    {
      "anonymous": false,
      "inputs": [
        {
          "indexed": true,
          "internalType": "uint256",
          "name": "courseId",
          "type": "uint256"
        },
        {
          "indexed": false,
          "internalType": "string",
          "name": "courseName",
          "type": "string"
        },
        {
          "indexed": false,
          "internalType": "address",
          "name": "instructor",
          "type": "address"
        }
      ],
      "name": "CourseRegistered",
      "type": "event"
    },
    {
      "anonymous": false,
      "inputs": [
        {
          "indexed": true,
          "internalType": "address",
          "name": "donor",
          "type": "address"
        },
        {
          "indexed": false,
          "internalType": "uint256",
          "name": "amount",
          "type": "uint256"
        },
        {
          "indexed": false,
          "internalType": "uint256",
          "name": "timestamp",
          "type": "uint256"
        }
      ],
      "name": "Donation",
      "type": "event"
    },
    {
      "anonymous": false,
      "inputs": [
        {
          "indexed": true,
          "internalType": "address",
          "name": "instructor",
          "type": "address"
        },
        {
          "indexed": true,
          "internalType": "uint256",
          "name": "courseId",
          "type": "uint256"
        }
      ],
      "name": "ExamApproved",
      "type": "event"
    },
    {
      "anonymous": false,
      "inputs": [
        {
          "indexed": true,
          "internalType": "address",
          "name": "student",
          "type": "address"
        },
        {
          "indexed": false,
          "internalType": "uint256",
          "name": "score",
          "type": "uint256"
        }
      ],
      "name": "ExamResultSubmitted",
      "type": "event"
    },
    {
      "anonymous": false,
      "inputs": [
        {
          "indexed": true,
          "internalType": "address",
          "name": "student",
          "type": "address"
        },
        {
          "indexed": true,
          "internalType": "uint256",
          "name": "courseId",
          "type": "uint256"
        }
      ],
      "name": "ExamStartedByStudent",
      "type": "event"
    },
    {
      "anonymous": false,
      "inputs": [
        {
          "indexed": true,
          "internalType": "address",
          "name": "instructor",
          "type": "address"
        },
        {
          "indexed": true,
          "internalType": "uint256",
          "name": "experience",
          "type": "uint256"
        }
      ],
      "name": "InstructorRegistered",
      "type": "event"
    },
    {
      "anonymous": false,
      "inputs": [
        {
          "indexed": true,
          "internalType": "address",
          "name": "admin",
          "type": "address"
        },
        {
          "indexed": true,
          "internalType": "address",
          "name": "instructor",
          "type": "address"
        }
      ],
      "name": "InstructorVerified",
      "type": "event"
    },
    {
      "anonymous": false,
      "inputs": [
        {
          "indexed": true,
          "internalType": "address",
          "name": "previousOwner",
          "type": "address"
        },
        {
          "indexed": true,
          "internalType": "address",
          "name": "newOwner",
          "type": "address"
        }
      ],
      "name": "OwnershipTransferred",
      "type": "event"
    },
    {
      "anonymous": false,
      "inputs": [
        {
          "indexed": false,
          "internalType": "address",
          "name": "account",
          "type": "address"
        }
      ],
      "name": "Paused",
      "type": "event"
    },
    {
      "anonymous": false,
      "inputs": [
        {
          "indexed": true,
          "internalType": "address",
          "name": "studentAddress",
          "type": "address"
        },
        {
          "indexed": false,
          "internalType": "uint256",
          "name": "timestamp",
          "type": "uint256"
        }
      ],
      "name": "Revoked",
      "type": "event"
    },
    {
      "anonymous": false,
      "inputs": [
        {
          "indexed": true,
          "internalType": "address",
          "name": "student",
          "type": "address"
        },
        {
          "indexed": false,
          "internalType": "uint256",
          "name": "score",
          "type": "uint256"
        }
      ],
      "name": "ScoreDisputed",
      "type": "event"
    },
    {
      "anonymous": false,
      "inputs": [
        {
          "indexed": true,
          "internalType": "address",
          "name": "admin",
          "type": "address"
        }
      ],
      "name": "ScoreSubmissionPaused",
      "type": "event"
    },
    {
      "anonymous": false,
      "inputs": [
        {
          "indexed": true,
          "internalType": "address",
          "name": "admin",
          "type": "address"
        }
      ],
      "name": "ScoreSubmissionResumed",
      "type": "event"
    },
    {
      "anonymous": false,
      "inputs": [
        {
          "indexed": true,
          "internalType": "address",
          "name": "student",
          "type": "address"
        },
        {
          "indexed": false,
          "internalType": "uint256",
          "name": "score",
          "type": "uint256"
        }
      ],
      "name": "ScoreSubmitted",
      "type": "event"
    },
    {
      "anonymous": false,
      "inputs": [
        {
          "indexed": true,
          "internalType": "address",
          "name": "student",
          "type": "address"
        },
        {
          "indexed": false,
          "internalType": "uint256",
          "name": "score",
          "type": "uint256"
        }
      ],
      "name": "ScoreVerified",
      "type": "event"
    },
    {
      "anonymous": false,
      "inputs": [
        {
          "indexed": true,
          "internalType": "address",
          "name": "student",
          "type": "address"
        },
        {
          "indexed": true,
          "internalType": "uint256",
          "name": "courseId",
          "type": "uint256"
        }
      ],
      "name": "StudentEnrolledInCourse",
      "type": "event"
    },
    {
      "anonymous": false,
      "inputs": [
        {
          "indexed": true,
          "internalType": "address",
          "name": "student",
          "type": "address"
        },
        {
          "indexed": true,
          "internalType": "string",
          "name": "matricNumber",
          "type": "string"
        }
      ],
      "name": "StudentRegistered",
      "type": "event"
    },
    {
      "anonymous": false,
      "inputs": [
        {
          "indexed": false,
          "internalType": "address",
          "name": "account",
          "type": "address"
        }
      ],
      "name": "Unpaused",
      "type": "event"
    },
    {
      "stateMutability": "nonpayable",
      "type": "fallback"
    },
    {
      "inputs": [],
      "name": "_nativeToken",
      "outputs": [
        {
          "internalType": "contract IERC20",
          "name": "",
          "type": "address"
        }
      ],
      "stateMutability": "view",
      "type": "function"
    },
    {
      "inputs": [
        {
          "internalType": "address",
          "name": "_member",
          "type": "address"
        },
        {
          "internalType": "uint256",
          "name": "_votePower",
          "type": "uint256"
        }
      ],
      "name": "addMemberToGovernance",
      "outputs": [],
      "stateMutability": "nonpayable",
      "type": "function"
    },
    {
      "inputs": [],
      "name": "admin",
      "outputs": [
        {
          "internalType": "address",
          "name": "",
          "type": "address"
        }
      ],
      "stateMutability": "view",
      "type": "function"
    },
    {
      "inputs": [
        {
          "internalType": "uint256",
          "name": "courseId",
          "type": "uint256"
        }
      ],
      "name": "approveCourse",
      "outputs": [],
      "stateMutability": "nonpayable",
      "type": "function"
    },
    {
      "inputs": [
        {
          "internalType": "uint256",
          "name": "courseId",
          "type": "uint256"
        }
      ],
      "name": "approveExam",
      "outputs": [],
      "stateMutability": "nonpayable",
      "type": "function"
    },
    {
      "inputs": [],
      "name": "courseCount",
      "outputs": [
        {
          "internalType": "uint256",
          "name": "",
          "type": "uint256"
        }
      ],
      "stateMutability": "view",
      "type": "function"
    },
    {
      "inputs": [
        {
          "internalType": "uint256",
          "name": "",
          "type": "uint256"
        }
      ],
      "name": "courses",
      "outputs": [
        {
          "internalType": "string",
          "name": "courseName",
          "type": "string"
        },
        {
          "internalType": "address",
          "name": "instructor",
          "type": "address"
        },
        {
          "internalType": "bool",
          "name": "approvedByAdmin",
          "type": "bool"
        }
      ],
      "stateMutability": "view",
      "type": "function"
    },
    {
      "inputs": [
        {
          "internalType": "address",
          "name": "_students",
          "type": "address"
        },
        {
          "internalType": "string",
          "name": "description",
          "type": "string"
        },
        {
          "internalType": "uint256",
          "name": "amountRequired",
          "type": "uint256"
        }
      ],
      "name": "createStudentProposal",
      "outputs": [],
      "stateMutability": "nonpayable",
      "type": "function"
    },
    {
      "inputs": [],
      "name": "disputeScore",
      "outputs": [],
      "stateMutability": "nonpayable",
      "type": "function"
    },
    {
      "inputs": [
        {
          "internalType": "uint256",
          "name": "courseId",
          "type": "uint256"
        }
      ],
      "name": "enrollInCourse",
      "outputs": [],
      "stateMutability": "nonpayable",
      "type": "function"
    },
    {
      "inputs": [
        {
          "internalType": "uint256",
          "name": "",
          "type": "uint256"
        }
      ],
      "name": "examRequests",
      "outputs": [
        {
          "internalType": "address",
          "name": "student",
          "type": "address"
        },
        {
          "internalType": "bool",
          "name": "approved",
          "type": "bool"
        }
      ],
      "stateMutability": "view",
      "type": "function"
    },
    {
      "inputs": [
        {
          "internalType": "address",
          "name": "",
          "type": "address"
        }
      ],
      "name": "examResults",
      "outputs": [
        {
          "internalType": "address",
          "name": "student",
          "type": "address"
        },
        {
          "internalType": "uint256",
          "name": "score",
          "type": "uint256"
        },
        {
          "internalType": "bool",
          "name": "submitted",
          "type": "bool"
        },
        {
          "internalType": "bool",
          "name": "disputed",
          "type": "bool"
        }
      ],
      "stateMutability": "view",
      "type": "function"
    },
    {
      "inputs": [],
      "name": "governance",
      "outputs": [
        {
          "internalType": "contract IGovernance",
          "name": "",
          "type": "address"
        }
      ],
      "stateMutability": "view",
      "type": "function"
    },
    {
      "inputs": [
        {
          "internalType": "address",
          "name": "",
          "type": "address"
        }
      ],
      "name": "instructorDetails",
      "outputs": [
        {
          "internalType": "string",
          "name": "",
          "type": "string"
        }
      ],
      "stateMutability": "view",
      "type": "function"
    },
    {
      "inputs": [
        {
          "internalType": "address",
          "name": "",
          "type": "address"
        }
      ],
      "name": "isInstructor",
      "outputs": [
        {
          "internalType": "bool",
          "name": "",
          "type": "bool"
        }
      ],
      "stateMutability": "view",
      "type": "function"
    },
    {
      "inputs": [
        {
          "internalType": "address",
          "name": "",
          "type": "address"
        }
      ],
      "name": "isInstructorVerified",
      "outputs": [
        {
          "internalType": "bool",
          "name": "",
          "type": "bool"
        }
      ],
      "stateMutability": "view",
      "type": "function"
    },
    {
      "inputs": [
        {
          "internalType": "address",
          "name": "",
          "type": "address"
        }
      ],
      "name": "isStudent",
      "outputs": [
        {
          "internalType": "bool",
          "name": "",
          "type": "bool"
        }
      ],
      "stateMutability": "view",
      "type": "function"
    },
    {
      "inputs": [
        {
          "internalType": "string",
          "name": "",
          "type": "string"
        }
      ],
      "name": "matricToAddress",
      "outputs": [
        {
          "internalType": "address",
          "name": "",
          "type": "address"
        }
      ],
      "stateMutability": "view",
      "type": "function"
    },
    {
      "inputs": [],
      "name": "owner",
      "outputs": [
        {
          "internalType": "address",
          "name": "",
          "type": "address"
        }
      ],
      "stateMutability": "view",
      "type": "function"
    },
    {
      "inputs": [],
      "name": "pauseScoreSubmissions",
      "outputs": [],
      "stateMutability": "nonpayable",
      "type": "function"
    },
    {
      "inputs": [],
      "name": "paused",
      "outputs": [
        {
          "internalType": "bool",
          "name": "",
          "type": "bool"
        }
      ],
      "stateMutability": "view",
      "type": "function"
    },
    {
      "inputs": [
        {
          "internalType": "string",
          "name": "courseName",
          "type": "string"
        }
      ],
      "name": "registerCourse",
      "outputs": [],
      "stateMutability": "nonpayable",
      "type": "function"
    },
    {
      "inputs": [
        {
          "internalType": "address",
          "name": "instructorAddress",
          "type": "address"
        },
        {
          "internalType": "uint256",
          "name": "experience",
          "type": "uint256"
        },
        {
          "internalType": "string",
          "name": "ipfsHash",
          "type": "string"
        }
      ],
      "name": "registerInstructor",
      "outputs": [],
      "stateMutability": "nonpayable",
      "type": "function"
    },
    {
      "inputs": [
        {
          "internalType": "string",
          "name": "matricNumber",
          "type": "string"
        },
        {
          "internalType": "address",
          "name": "studentAddress",
          "type": "address"
        },
        {
          "internalType": "string",
          "name": "ipfsHash",
          "type": "string"
        }
      ],
      "name": "registerStudent",
      "outputs": [],
      "stateMutability": "nonpayable",
      "type": "function"
    },
    {
      "inputs": [],
      "name": "renounceOwnership",
      "outputs": [],
      "stateMutability": "nonpayable",
      "type": "function"
    },
    {
      "inputs": [],
      "name": "resumeScoreSubmissions",
      "outputs": [],
      "stateMutability": "nonpayable",
      "type": "function"
    },
    {
      "inputs": [
        {
          "internalType": "uint256",
          "name": "courseId",
          "type": "uint256"
        }
      ],
      "name": "startExam",
      "outputs": [],
      "stateMutability": "nonpayable",
      "type": "function"
    },
    {
      "inputs": [
        {
          "internalType": "address",
          "name": "",
          "type": "address"
        },
        {
          "internalType": "uint256",
          "name": "",
          "type": "uint256"
        }
      ],
      "name": "studentCourses",
      "outputs": [
        {
          "internalType": "uint256",
          "name": "",
          "type": "uint256"
        }
      ],
      "stateMutability": "view",
      "type": "function"
    },
    {
      "inputs": [
        {
          "internalType": "address",
          "name": "",
          "type": "address"
        }
      ],
      "name": "studentDetails",
      "outputs": [
        {
          "internalType": "string",
          "name": "",
          "type": "string"
        }
      ],
      "stateMutability": "view",
      "type": "function"
    },
    {
      "inputs": [
        {
          "internalType": "address",
          "name": "",
          "type": "address"
        }
      ],
      "name": "students",
      "outputs": [
        {
          "internalType": "uint256",
          "name": "cgpa",
          "type": "uint256"
        },
        {
          "internalType": "address",
          "name": "student",
          "type": "address"
        },
        {
          "internalType": "string",
          "name": "transcript",
          "type": "string"
        },
        {
          "internalType": "bool",
          "name": "inDept",
          "type": "bool"
        }
      ],
      "stateMutability": "view",
      "type": "function"
    },
    {
      "inputs": [
        {
          "internalType": "uint256",
          "name": "score",
          "type": "uint256"
        }
      ],
      "name": "submitExamResult",
      "outputs": [],
      "stateMutability": "nonpayable",
      "type": "function"
    },
    {
      "inputs": [
        {
          "internalType": "address",
          "name": "newOwner",
          "type": "address"
        }
      ],
      "name": "transferOwnership",
      "outputs": [],
      "stateMutability": "nonpayable",
      "type": "function"
    },
    {
      "inputs": [
        {
          "internalType": "address",
          "name": "student",
          "type": "address"
        },
        {
          "internalType": "uint256",
          "name": "score",
          "type": "uint256"
        }
      ],
      "name": "updateScoreHistory",
      "outputs": [],
      "stateMutability": "nonpayable",
      "type": "function"
    },
    {
      "inputs": [
        {
          "internalType": "address",
          "name": "instructorAddress",
          "type": "address"
        }
      ],
      "name": "verifyInstructor",
      "outputs": [],
      "stateMutability": "nonpayable",
      "type": "function"
    },
    {
      "inputs": [
        {
          "internalType": "address",
          "name": "student",
          "type": "address"
        }
      ],
      "name": "verifyScore",
      "outputs": [],
      "stateMutability": "nonpayable",
      "type": "function"
    },
    {
      "stateMutability": "payable",
      "type": "receive"
    }
  ],
  "bytecode": "0x608060405260006007553480156200001657600080fd5b50604051620042b8380380620042b883398181016040528101906200003c9190620002e2565b336001600081905550600073ffffffffffffffffffffffffffffffffffffffff168173ffffffffffffffffffffffffffffffffffffffff1603620000ba5760006040517f1e4fbdf7000000000000000000000000000000000000000000000000000000008152600401620000b191906200033a565b60405180910390fd5b620000cb81620001b260201b60201c565b506000600160146101000a81548160ff02191690831515021790555081600260006101000a81548173ffffffffffffffffffffffffffffffffffffffff021916908373ffffffffffffffffffffffffffffffffffffffff16021790555080600460006101000a81548173ffffffffffffffffffffffffffffffffffffffff021916908373ffffffffffffffffffffffffffffffffffffffff16021790555033600860006101000a81548173ffffffffffffffffffffffffffffffffffffffff021916908373ffffffffffffffffffffffffffffffffffffffff160217905550505062000357565b6000600160009054906101000a900473ffffffffffffffffffffffffffffffffffffffff16905081600160006101000a81548173ffffffffffffffffffffffffffffffffffffffff021916908373ffffffffffffffffffffffffffffffffffffffff1602179055508173ffffffffffffffffffffffffffffffffffffffff168173ffffffffffffffffffffffffffffffffffffffff167f8be0079c531659141344cd1fd0a4f28419497f9722a3daafe3b4186f6b6457e060405160405180910390a35050565b600080fd5b600073ffffffffffffffffffffffffffffffffffffffff82169050919050565b6000620002aa826200027d565b9050919050565b620002bc816200029d565b8114620002c857600080fd5b50565b600081519050620002dc81620002b1565b92915050565b60008060408385031215620002fc57620002fb62000278565b5b60006200030c85828601620002cb565b92505060206200031f85828601620002cb565b9150509250929050565b62000334816200029d565b82525050565b600060208201905062000351600083018462000329565b92915050565b613f5180620003676000396000f3fe6080604052600436106102085760003560e01c806382f7d39211610118578063b06b5d78116100a0578063d81a05531161006f578063d81a0553146107ef578063ed2b408b1461081a578063f2fde38b14610843578063f851a4401461086c578063fd95cc511461089757610248565b8063b06b5d7814610720578063b0f0622b14610749578063ca6fb5da14610786578063cc22d25b146107af57610248565b80639c0063e3116100e75780639c0063e3146105eb578063a3afcea214610629578063a6c807a914610666578063aa6803c8146106a6578063aed7419b146106e357610248565b806382f7d3921461052d5780638da5cb5b1461056a578063947099381461059557806396f979d2146105ac57610248565b806364af64a91161019b57806370d944b21161016a57806370d944b214610484578063715018a6146104ad57806375284998146104c45780637991ab29146104ed57806380eb7dab1461050457610248565b806364af64a9146103ca57806366055159146104075780636abbd3f7146104325780636d144c2f1461045b57610248565b80635a391b7e116101d75780635a391b7e146103225780635aa6e6751461034b5780635c975abb146103765780635e52da27146103a157610248565b8063054d196f146102905780633f5bc276146102b957806343a43b55146102d057806345ef78b5146102f957610248565b36610248576040517f08c379a000000000000000000000000000000000000000000000000000000000815260040161023f90612d03565b60405180910390fd5b34801561025457600080fd5b506040517f08c379a000000000000000000000000000000000000000000000000000000000815260040161028790612d03565b60405180910390fd5b34801561029c57600080fd5b506102b760048036038101906102b29190612f11565b6108d4565b005b3480156102c557600080fd5b506102ce610adf565b005b3480156102dc57600080fd5b506102f760048036038101906102f29190612f80565b610bb8565b005b34801561030557600080fd5b50610320600480360381019061031b9190612f80565b610d5e565b005b34801561032e57600080fd5b5061034960048036038101906103449190612fad565b610fdb565b005b34801561035757600080fd5b506103606112c7565b60405161036d9190613097565b60405180910390f35b34801561038257600080fd5b5061038b6112ed565b60405161039891906130cd565b60405180910390f35b3480156103ad57600080fd5b506103c860048036038101906103c39190612f80565b611304565b005b3480156103d657600080fd5b506103f160048036038101906103ec91906130e8565b6114e8565b6040516103fe91906130cd565b60405180910390f35b34801561041357600080fd5b5061041c611508565b6040516104299190613124565b60405180910390f35b34801561043e57600080fd5b506104596004803603810190610454919061313f565b61150e565b005b34801561046757600080fd5b50610482600480360381019061047d91906130e8565b6116ba565b005b34801561049057600080fd5b506104ab60048036038101906104a69190613188565b611868565b005b3480156104b957600080fd5b506104c2611988565b005b3480156104d057600080fd5b506104eb60048036038101906104e69190612f80565b61199c565b005b3480156104f957600080fd5b50610502611aa6565b005b34801561051057600080fd5b5061052b60048036038101906105269190612f80565b611b7f565b005b34801561053957600080fd5b50610554600480360381019061054f91906130e8565b611d46565b60405161056191906130cd565b60405180910390f35b34801561057657600080fd5b5061057f611d66565b60405161058c9190613206565b60405180910390f35b3480156105a157600080fd5b506105aa611d90565b005b3480156105b857600080fd5b506105d360048036038101906105ce9190612f80565b611f98565b6040516105e29392919061328f565b60405180910390f35b3480156105f757600080fd5b50610612600480360381019061060d9190612f80565b612077565b6040516106209291906132cd565b60405180910390f35b34801561063557600080fd5b50610650600480360381019061064b91906130e8565b6120c8565b60405161065d91906130cd565b60405180910390f35b34801561067257600080fd5b5061068d600480360381019061068891906130e8565b6120e8565b60405161069d94939291906132f6565b60405180910390f35b3480156106b257600080fd5b506106cd60048036038101906106c891906130e8565b6121cd565b6040516106da9190613342565b60405180910390f35b3480156106ef57600080fd5b5061070a600480360381019061070591906130e8565b61226d565b6040516107179190613342565b60405180910390f35b34801561072c57600080fd5b50610747600480360381019061074291906130e8565b61230d565b005b34801561075557600080fd5b50610770600480360381019061076b919061313f565b6124de565b60405161077d9190613206565b60405180910390f35b34801561079257600080fd5b506107ad60048036038101906107a89190613364565b612527565b005b3480156107bb57600080fd5b506107d660048036038101906107d191906130e8565b61268a565b6040516107e694939291906133a4565b60405180910390f35b3480156107fb57600080fd5b506108046126f4565b604051610811919061340a565b60405180910390f35b34801561082657600080fd5b50610841600480360381019061083c9190613364565b61271a565b005b34801561084f57600080fd5b5061086a600480360381019061086591906130e8565b61283d565b005b34801561087857600080fd5b506108816128c3565b60405161088e9190613206565b60405180910390f35b3480156108a357600080fd5b506108be60048036038101906108b99190613364565b6128e9565b6040516108cb9190613124565b60405180910390f35b600860009054906101000a900473ffffffffffffffffffffffffffffffffffffffff1673ffffffffffffffffffffffffffffffffffffffff163373ffffffffffffffffffffffffffffffffffffffff1614610964576040517f08c379a000000000000000000000000000000000000000000000000000000000815260040161095b90613497565b60405180910390fd5b601160008473ffffffffffffffffffffffffffffffffffffffff1673ffffffffffffffffffffffffffffffffffffffff16815260200190815260200160002060009054906101000a900460ff16156109f1576040517f08c379a00000000000000000000000000000000000000000000000000000000081526004016109e890613503565b60405180910390fd5b6001601160008573ffffffffffffffffffffffffffffffffffffffff1673ffffffffffffffffffffffffffffffffffffffff16815260200190815260200160002060006101000a81548160ff02191690831515021790555080601360008573ffffffffffffffffffffffffffffffffffffffff1673ffffffffffffffffffffffffffffffffffffffff1681526020019081526020016000209081610a959190613725565b50818373ffffffffffffffffffffffffffffffffffffffff167fe599f84b0ed5e23ddfa15983cda2aa87fba726ee5b83a4163ad01b6a2bc8eb2f60405160405180910390a3505050565b601260003373ffffffffffffffffffffffffffffffffffffffff1673ffffffffffffffffffffffffffffffffffffffff16815260200190815260200160002060009054906101000a900460ff16610b6b576040517f08c379a0000000000000000000000000000000000000000000000000000000008152600401610b6290613843565b60405180910390fd5b610b7361291a565b3373ffffffffffffffffffffffffffffffffffffffff167ff2bf4fd42b6f123e97728df8b19d48a378a73776920249ef33ea61bd25fcd0c960405160405180910390a2565b601260003373ffffffffffffffffffffffffffffffffffffffff1673ffffffffffffffffffffffffffffffffffffffff16815260200190815260200160002060009054906101000a900460ff16610c44576040517f08c379a0000000000000000000000000000000000000000000000000000000008152600401610c3b90613843565b60405180910390fd5b3373ffffffffffffffffffffffffffffffffffffffff16600a600083815260200190815260200160002060010160009054906101000a900473ffffffffffffffffffffffffffffffffffffffff1673ffffffffffffffffffffffffffffffffffffffff1614610ce8576040517f08c379a0000000000000000000000000000000000000000000000000000000008152600401610cdf906138af565b60405180910390fd5b6001600e600083815260200190815260200160002060000160146101000a81548160ff021916908315150217905550803373ffffffffffffffffffffffffffffffffffffffff167f3c5d8f3fa12b6b62671802c7363c037be5d8f101eddc40a7ea6f8017ec120d1760405160405180910390a350565b601260003373ffffffffffffffffffffffffffffffffffffffff1673ffffffffffffffffffffffffffffffffffffffff16815260200190815260200160002060009054906101000a900460ff16610dea576040517f08c379a0000000000000000000000000000000000000000000000000000000008152600401610de190613843565b60405180910390fd5b600f60003373ffffffffffffffffffffffffffffffffffffffff1673ffffffffffffffffffffffffffffffffffffffff16815260200190815260200160002060020160009054906101000a900460ff1615610e7a576040517f08c379a0000000000000000000000000000000000000000000000000000000008152600401610e719061391b565b60405180910390fd5b60405180608001604052803373ffffffffffffffffffffffffffffffffffffffff16815260200182815260200160011515815260200160001515815250600f60003373ffffffffffffffffffffffffffffffffffffffff1673ffffffffffffffffffffffffffffffffffffffff16815260200190815260200160002060008201518160000160006101000a81548173ffffffffffffffffffffffffffffffffffffffff021916908373ffffffffffffffffffffffffffffffffffffffff1602179055506020820151816001015560408201518160020160006101000a81548160ff02191690831515021790555060608201518160020160016101000a81548160ff0219169083151502179055509050503373ffffffffffffffffffffffffffffffffffffffff167fa578df9b0453d14d7ed8615ee0e9d58f70e041e91fc5865e3b71f81ea05296c082604051610fd09190613124565b60405180910390a250565b600860009054906101000a900473ffffffffffffffffffffffffffffffffffffffff1673ffffffffffffffffffffffffffffffffffffffff163373ffffffffffffffffffffffffffffffffffffffff161461106b576040517f08c379a000000000000000000000000000000000000000000000000000000000815260040161106290613497565b60405180910390fd5b600073ffffffffffffffffffffffffffffffffffffffff168273ffffffffffffffffffffffffffffffffffffffff16036110da576040517f08c379a00000000000000000000000000000000000000000000000000000000081526004016110d190613987565b60405180910390fd5b601060008373ffffffffffffffffffffffffffffffffffffffff1673ffffffffffffffffffffffffffffffffffffffff16815260200190815260200160002060009054906101000a900460ff1615611167576040517f08c379a000000000000000000000000000000000000000000000000000000000815260040161115e906139f3565b60405180910390fd5b6001601060008473ffffffffffffffffffffffffffffffffffffffff1673ffffffffffffffffffffffffffffffffffffffff16815260200190815260200160002060006101000a81548160ff02191690831515021790555081600d846040516111d09190613a4f565b908152602001604051809103902060006101000a81548173ffffffffffffffffffffffffffffffffffffffff021916908373ffffffffffffffffffffffffffffffffffffffff16021790555080601460008473ffffffffffffffffffffffffffffffffffffffff1673ffffffffffffffffffffffffffffffffffffffff16815260200190815260200160002090816112689190613725565b50826040516112779190613a4f565b60405180910390208273ffffffffffffffffffffffffffffffffffffffff167fc1b20826100814ba286ac576fe980df1dbbcef3d904bb81f3d69a0e8280dc11460405160405180910390a3505050565b600460009054906101000a900473ffffffffffffffffffffffffffffffffffffffff1681565b6000600160149054906101000a900460ff16905090565b601060003373ffffffffffffffffffffffffffffffffffffffff1673ffffffffffffffffffffffffffffffffffffffff16815260200190815260200160002060009054906101000a900460ff16611390576040517f08c379a000000000000000000000000000000000000000000000000000000000815260040161138790613ad8565b60405180910390fd5b6113998161297c565b6113d8576040517f08c379a00000000000000000000000000000000000000000000000000000000081526004016113cf90613b44565b60405180910390fd5b600a600082815260200190815260200160002060010160149054906101000a900460ff1661143b576040517f08c379a000000000000000000000000000000000000000000000000000000000815260040161143290613bb0565b60405180910390fd5b600b60003373ffffffffffffffffffffffffffffffffffffffff1673ffffffffffffffffffffffffffffffffffffffff168152602001908152602001600020819080600181540180825580915050600190039060005260206000200160009091909190915055803373ffffffffffffffffffffffffffffffffffffffff167fdd4f89d1066ece6dd49f4c97f0bcfa4108f9158b95e86ee4aea091cab54ee43360405160405180910390a350565b60126020528060005260406000206000915054906101000a900460ff1681565b60075481565b601160003373ffffffffffffffffffffffffffffffffffffffff1673ffffffffffffffffffffffffffffffffffffffff16815260200190815260200160002060009054906101000a900460ff1661159a576040517f08c379a000000000000000000000000000000000000000000000000000000000815260040161159190613c1c565b60405180910390fd5b600760008154809291906115ad90613c6b565b919050555060405180606001604052808281526020013373ffffffffffffffffffffffffffffffffffffffff16815260200160001515815250600a6000600754815260200190815260200160002060008201518160000190816116109190613725565b5060208201518160010160006101000a81548173ffffffffffffffffffffffffffffffffffffffff021916908373ffffffffffffffffffffffffffffffffffffffff16021790555060408201518160010160146101000a81548160ff0219169083151502179055509050506007547ffe2075865df83746db75fdda464608b24431491646cb4280f0ad94e51acd4afe82336040516116af929190613cb3565b60405180910390a250565b601260003373ffffffffffffffffffffffffffffffffffffffff1673ffffffffffffffffffffffffffffffffffffffff16815260200190815260200160002060009054906101000a900460ff16611746576040517f08c379a000000000000000000000000000000000000000000000000000000000815260040161173d90613843565b60405180910390fd5b600f60008273ffffffffffffffffffffffffffffffffffffffff1673ffffffffffffffffffffffffffffffffffffffff16815260200190815260200160002060020160009054906101000a900460ff166117d5576040517f08c379a00000000000000000000000000000000000000000000000000000000081526004016117cc90613d2f565b60405180910390fd5b8073ffffffffffffffffffffffffffffffffffffffff167f87fe219de133cbc8d82de9b1735541764273651234cdb35416b0638e470ee696600f60008473ffffffffffffffffffffffffffffffffffffffff1673ffffffffffffffffffffffffffffffffffffffff1681526020019081526020016000206001015460405161185d9190613124565b60405180910390a250565b601060003373ffffffffffffffffffffffffffffffffffffffff1673ffffffffffffffffffffffffffffffffffffffff16815260200190815260200160002060009054906101000a900460ff166118f4576040517f08c379a00000000000000000000000000000000000000000000000000000000081526004016118eb90613ad8565b60405180910390fd5b600460009054906101000a900473ffffffffffffffffffffffffffffffffffffffff1673ffffffffffffffffffffffffffffffffffffffff166335facf7883836040518363ffffffff1660e01b8152600401611951929190613d4f565b600060405180830381600087803b15801561196b57600080fd5b505af115801561197f573d6000803e3d6000fd5b50505050505050565b611990612996565b61199a6000612a1d565b565b600860009054906101000a900473ffffffffffffffffffffffffffffffffffffffff1673ffffffffffffffffffffffffffffffffffffffff163373ffffffffffffffffffffffffffffffffffffffff1614611a2c576040517f08c379a0000000000000000000000000000000000000000000000000000000008152600401611a2390613497565b60405180910390fd5b611a358161297c565b611a74576040517f08c379a0000000000000000000000000000000000000000000000000000000008152600401611a6b90613b44565b60405180910390fd5b6001600a600083815260200190815260200160002060010160146101000a81548160ff02191690831515021790555050565b601260003373ffffffffffffffffffffffffffffffffffffffff1673ffffffffffffffffffffffffffffffffffffffff16815260200190815260200160002060009054906101000a900460ff16611b32576040517f08c379a0000000000000000000000000000000000000000000000000000000008152600401611b2990613843565b60405180910390fd5b611b3a612ae3565b3373ffffffffffffffffffffffffffffffffffffffff167ffedc24f403843ac60baf9a119e39bd994050b2d6082bdeeb9c472f7c11d8f5f460405160405180910390a2565b601060003373ffffffffffffffffffffffffffffffffffffffff1673ffffffffffffffffffffffffffffffffffffffff16815260200190815260200160002060009054906101000a900460ff16611c0b576040517f08c379a0000000000000000000000000000000000000000000000000000000008152600401611c0290613ad8565b60405180910390fd5b611c158133612b46565b611c54576040517f08c379a0000000000000000000000000000000000000000000000000000000008152600401611c4b90613dcb565b60405180910390fd5b60405180604001604052803373ffffffffffffffffffffffffffffffffffffffff16815260200160001515815250600e600083815260200190815260200160002060008201518160000160006101000a81548173ffffffffffffffffffffffffffffffffffffffff021916908373ffffffffffffffffffffffffffffffffffffffff16021790555060208201518160000160146101000a81548160ff021916908315150217905550905050803373ffffffffffffffffffffffffffffffffffffffff167f135c956e9407fa64c940a0b78bb127d31677667c8a4599b0393a8e5bcf0ddf1960405160405180910390a350565b60106020528060005260406000206000915054906101000a900460ff1681565b6000600160009054906101000a900473ffffffffffffffffffffffffffffffffffffffff16905090565b601060003373ffffffffffffffffffffffffffffffffffffffff1673ffffffffffffffffffffffffffffffffffffffff16815260200190815260200160002060009054906101000a900460ff16611e1c576040517f08c379a0000000000000000000000000000000000000000000000000000000008152600401611e1390613ad8565b60405180910390fd5b600f60003373ffffffffffffffffffffffffffffffffffffffff1673ffffffffffffffffffffffffffffffffffffffff16815260200190815260200160002060020160009054906101000a900460ff16611eab576040517f08c379a0000000000000000000000000000000000000000000000000000000008152600401611ea290613d2f565b60405180910390fd5b6001600f60003373ffffffffffffffffffffffffffffffffffffffff1673ffffffffffffffffffffffffffffffffffffffff16815260200190815260200160002060020160016101000a81548160ff0219169083151502179055503373ffffffffffffffffffffffffffffffffffffffff167f93ca53957be684afeab4fa474e805dfb8d421792910b16c8a16ac1ed31856973600f60003373ffffffffffffffffffffffffffffffffffffffff1673ffffffffffffffffffffffffffffffffffffffff16815260200190815260200160002060010154604051611f8e9190613124565b60405180910390a2565b600a602052806000526040600020600091509050806000018054611fbb90613552565b80601f0160208091040260200160405190810160405280929190818152602001828054611fe790613552565b80156120345780601f1061200957610100808354040283529160200191612034565b820191906000526020600020905b81548152906001019060200180831161201757829003601f168201915b5050505050908060010160009054906101000a900473ffffffffffffffffffffffffffffffffffffffff16908060010160149054906101000a900460ff16905083565b600e6020528060005260406000206000915090508060000160009054906101000a900473ffffffffffffffffffffffffffffffffffffffff16908060000160149054906101000a900460ff16905082565b60116020528060005260406000206000915054906101000a900460ff1681565b600c6020528060005260406000206000915090508060000154908060010160009054906101000a900473ffffffffffffffffffffffffffffffffffffffff169080600201805461213790613552565b80601f016020809104026020016040519081016040528092919081815260200182805461216390613552565b80156121b05780601f10612185576101008083540402835291602001916121b0565b820191906000526020600020905b81548152906001019060200180831161219357829003601f168201915b5050505050908060030160009054906101000a900460ff16905084565b601360205280600052604060002060009150905080546121ec90613552565b80601f016020809104026020016040519081016040528092919081815260200182805461221890613552565b80156122655780601f1061223a57610100808354040283529160200191612265565b820191906000526020600020905b81548152906001019060200180831161224857829003601f168201915b505050505081565b6014602052806000526040600020600091509050805461228c90613552565b80601f01602080910402602001604051908101604052809291908181526020018280546122b890613552565b80156123055780601f106122da57610100808354040283529160200191612305565b820191906000526020600020905b8154815290600101906020018083116122e857829003601f168201915b505050505081565b600860009054906101000a900473ffffffffffffffffffffffffffffffffffffffff1673ffffffffffffffffffffffffffffffffffffffff163373ffffffffffffffffffffffffffffffffffffffff161461239d576040517f08c379a000000000000000000000000000000000000000000000000000000000815260040161239490613497565b60405180910390fd5b601160008273ffffffffffffffffffffffffffffffffffffffff1673ffffffffffffffffffffffffffffffffffffffff16815260200190815260200160002060009054906101000a900460ff16612429576040517f08c379a000000000000000000000000000000000000000000000000000000000815260040161242090613e37565b60405180910390fd5b6001601260008373ffffffffffffffffffffffffffffffffffffffff1673ffffffffffffffffffffffffffffffffffffffff16815260200190815260200160002060006101000a81548160ff0219169083151502179055508073ffffffffffffffffffffffffffffffffffffffff163373ffffffffffffffffffffffffffffffffffffffff167f77a2ced89bd173e53945a647c6ef311969a35c51d924690ede4d5e055a6a618460405160405180910390a350565b600d818051602081018201805184825260208301602085012081835280955050505050506000915054906101000a900473ffffffffffffffffffffffffffffffffffffffff1681565b601260003373ffffffffffffffffffffffffffffffffffffffff1673ffffffffffffffffffffffffffffffffffffffff16815260200190815260200160002060009054906101000a900460ff166125b3576040517f08c379a00000000000000000000000000000000000000000000000000000000081526004016125aa90613843565b60405180910390fd5b601060008373ffffffffffffffffffffffffffffffffffffffff1673ffffffffffffffffffffffffffffffffffffffff16815260200190815260200160002060009054906101000a900460ff1661263f576040517f08c379a000000000000000000000000000000000000000000000000000000000815260040161263690613ea3565b60405180910390fd5b80600f60008473ffffffffffffffffffffffffffffffffffffffff1673ffffffffffffffffffffffffffffffffffffffff168152602001908152602001600020600101819055505050565b600f6020528060005260406000206000915090508060000160009054906101000a900473ffffffffffffffffffffffffffffffffffffffff16908060010154908060020160009054906101000a900460ff16908060020160019054906101000a900460ff16905084565b600260009054906101000a900473ffffffffffffffffffffffffffffffffffffffff1681565b600860009054906101000a900473ffffffffffffffffffffffffffffffffffffffff1673ffffffffffffffffffffffffffffffffffffffff163373ffffffffffffffffffffffffffffffffffffffff16146127aa576040517f08c379a00000000000000000000000000000000000000000000000000000000081526004016127a190613497565b60405180910390fd5b600460009054906101000a900473ffffffffffffffffffffffffffffffffffffffff1673ffffffffffffffffffffffffffffffffffffffff166398041ea383836040518363ffffffff1660e01b8152600401612807929190613ec3565b600060405180830381600087803b15801561282157600080fd5b505af1158015612835573d6000803e3d6000fd5b505050505050565b612845612996565b600073ffffffffffffffffffffffffffffffffffffffff168173ffffffffffffffffffffffffffffffffffffffff16036128b75760006040517f1e4fbdf70000000000000000000000000000000000000000000000000000000081526004016128ae9190613206565b60405180910390fd5b6128c081612a1d565b50565b600860009054906101000a900473ffffffffffffffffffffffffffffffffffffffff1681565b600b602052816000526040600020818154811061290557600080fd5b90600052602060002001600091509150505481565b612922612c1d565b60018060146101000a81548160ff0219169083151502179055507f62e78cea01bee320cd4e420270b5ea74000d11b0c9f74754ebdbfc544b05a258612965612c5e565b6040516129729190613206565b60405180910390a1565b6000808211801561298f57506007548211155b9050919050565b61299e612c5e565b73ffffffffffffffffffffffffffffffffffffffff166129bc611d66565b73ffffffffffffffffffffffffffffffffffffffff1614612a1b576129df612c5e565b6040517f118cdaa7000000000000000000000000000000000000000000000000000000008152600401612a129190613206565b60405180910390fd5b565b6000600160009054906101000a900473ffffffffffffffffffffffffffffffffffffffff16905081600160006101000a81548173ffffffffffffffffffffffffffffffffffffffff021916908373ffffffffffffffffffffffffffffffffffffffff1602179055508173ffffffffffffffffffffffffffffffffffffffff168173ffffffffffffffffffffffffffffffffffffffff167f8be0079c531659141344cd1fd0a4f28419497f9722a3daafe3b4186f6b6457e060405160405180910390a35050565b612aeb612c66565b6000600160146101000a81548160ff0219169083151502179055507f5db9ee0a495bf2e6ff9c91a7834c1ba4fdd244a5e8aa4e537bd38aeae4b073aa612b2f612c5e565b604051612b3c9190613206565b60405180910390a1565b600080600090505b600b60008473ffffffffffffffffffffffffffffffffffffffff1673ffffffffffffffffffffffffffffffffffffffff16815260200190815260200160002080549050811015612c115783600b60008573ffffffffffffffffffffffffffffffffffffffff1673ffffffffffffffffffffffffffffffffffffffff1681526020019081526020016000208281548110612bea57612be9613eec565b5b906000526020600020015403612c04576001915050612c17565b8080600101915050612b4e565b50600090505b92915050565b612c256112ed565b15612c5c576040517fd93c066500000000000000000000000000000000000000000000000000000000815260040160405180910390fd5b565b600033905090565b612c6e6112ed565b612ca4576040517f8dfc202b00000000000000000000000000000000000000000000000000000000815260040160405180910390fd5b565b600082825260208201905092915050565b7f4564754261736520646f6573206e6f7420616363657074204574686572000000600082015250565b6000612ced601d83612ca6565b9150612cf882612cb7565b602082019050919050565b60006020820190508181036000830152612d1c81612ce0565b9050919050565b6000604051905090565b600080fd5b600080fd5b600073ffffffffffffffffffffffffffffffffffffffff82169050919050565b6000612d6282612d37565b9050919050565b612d7281612d57565b8114612d7d57600080fd5b50565b600081359050612d8f81612d69565b92915050565b6000819050919050565b612da881612d95565b8114612db357600080fd5b50565b600081359050612dc581612d9f565b92915050565b600080fd5b600080fd5b6000601f19601f8301169050919050565b7f4e487b7100000000000000000000000000000000000000000000000000000000600052604160045260246000fd5b612e1e82612dd5565b810181811067ffffffffffffffff82111715612e3d57612e3c612de6565b5b80604052505050565b6000612e50612d23565b9050612e5c8282612e15565b919050565b600067ffffffffffffffff821115612e7c57612e7b612de6565b5b612e8582612dd5565b9050602081019050919050565b82818337600083830152505050565b6000612eb4612eaf84612e61565b612e46565b905082815260208101848484011115612ed057612ecf612dd0565b5b612edb848285612e92565b509392505050565b600082601f830112612ef857612ef7612dcb565b5b8135612f08848260208601612ea1565b91505092915050565b600080600060608486031215612f2a57612f29612d2d565b5b6000612f3886828701612d80565b9350506020612f4986828701612db6565b925050604084013567ffffffffffffffff811115612f6a57612f69612d32565b5b612f7686828701612ee3565b9150509250925092565b600060208284031215612f9657612f95612d2d565b5b6000612fa484828501612db6565b91505092915050565b600080600060608486031215612fc657612fc5612d2d565b5b600084013567ffffffffffffffff811115612fe457612fe3612d32565b5b612ff086828701612ee3565b935050602061300186828701612d80565b925050604084013567ffffffffffffffff81111561302257613021612d32565b5b61302e86828701612ee3565b9150509250925092565b6000819050919050565b600061305d61305861305384612d37565b613038565b612d37565b9050919050565b600061306f82613042565b9050919050565b600061308182613064565b9050919050565b61309181613076565b82525050565b60006020820190506130ac6000830184613088565b92915050565b60008115159050919050565b6130c7816130b2565b82525050565b60006020820190506130e260008301846130be565b92915050565b6000602082840312156130fe576130fd612d2d565b5b600061310c84828501612d80565b91505092915050565b61311e81612d95565b82525050565b60006020820190506131396000830184613115565b92915050565b60006020828403121561315557613154612d2d565b5b600082013567ffffffffffffffff81111561317357613172612d32565b5b61317f84828501612ee3565b91505092915050565b6000806000606084860312156131a1576131a0612d2d565b5b60006131af86828701612d80565b935050602084013567ffffffffffffffff8111156131d0576131cf612d32565b5b6131dc86828701612ee3565b92505060406131ed86828701612db6565b9150509250925092565b61320081612d57565b82525050565b600060208201905061321b60008301846131f7565b92915050565b600081519050919050565b60005b8381101561324a57808201518184015260208101905061322f565b60008484015250505050565b600061326182613221565b61326b8185612ca6565b935061327b81856020860161322c565b61328481612dd5565b840191505092915050565b600060608201905081810360008301526132a98186613256565b90506132b860208301856131f7565b6132c560408301846130be565b949350505050565b60006040820190506132e260008301856131f7565b6132ef60208301846130be565b9392505050565b600060808201905061330b6000830187613115565b61331860208301866131f7565b818103604083015261332a8185613256565b905061333960608301846130be565b95945050505050565b6000602082019050818103600083015261335c8184613256565b905092915050565b6000806040838503121561337b5761337a612d2d565b5b600061338985828601612d80565b925050602061339a85828601612db6565b9150509250929050565b60006080820190506133b960008301876131f7565b6133c66020830186613115565b6133d360408301856130be565b6133e060608301846130be565b95945050505050565b60006133f482613064565b9050919050565b613404816133e9565b82525050565b600060208201905061341f60008301846133fb565b92915050565b7f4f6e6c792061646d696e2063616e2063616c6c20746869732066756e6374696f60008201527f6e00000000000000000000000000000000000000000000000000000000000000602082015250565b6000613481602183612ca6565b915061348c82613425565b604082019050919050565b600060208201905081810360008301526134b081613474565b9050919050565b7f496e7374727563746f7220616c72656164792072656769737465726564000000600082015250565b60006134ed601d83612ca6565b91506134f8826134b7565b602082019050919050565b6000602082019050818103600083015261351c816134e0565b9050919050565b7f4e487b7100000000000000000000000000000000000000000000000000000000600052602260045260246000fd5b6000600282049050600182168061356a57607f821691505b60208210810361357d5761357c613523565b5b50919050565b60008190508160005260206000209050919050565b60006020601f8301049050919050565b600082821b905092915050565b6000600883026135e57fffffffffffffffffffffffffffffffffffffffffffffffffffffffffffffffff826135a8565b6135ef86836135a8565b95508019841693508086168417925050509392505050565b600061362261361d61361884612d95565b613038565b612d95565b9050919050565b6000819050919050565b61363c83613607565b61365061364882613629565b8484546135b5565b825550505050565b600090565b613665613658565b613670818484613633565b505050565b5b818110156136945761368960008261365d565b600181019050613676565b5050565b601f8211156136d9576136aa81613583565b6136b384613598565b810160208510156136c2578190505b6136d66136ce85613598565b830182613675565b50505b505050565b600082821c905092915050565b60006136fc600019846008026136de565b1980831691505092915050565b600061371583836136eb565b9150826002028217905092915050565b61372e82613221565b67ffffffffffffffff81111561374757613746612de6565b5b6137518254613552565b61375c828285613698565b600060209050601f83116001811461378f576000841561377d578287015190505b6137878582613709565b8655506137ef565b601f19841661379d86613583565b60005b828110156137c5578489015182556001820191506020850194506020810190506137a0565b868310156137e257848901516137de601f8916826136eb565b8355505b6001600288020188555050505b505050505050565b7f4e6f74206120766572696669656420696e7374727563746f7200000000000000600082015250565b600061382d601983612ca6565b9150613838826137f7565b602082019050919050565b6000602082019050818103600083015261385c81613820565b9050919050565b7f4f6e6c7920696e7374727563746f722063616e20617070726f76650000000000600082015250565b6000613899601b83612ca6565b91506138a482613863565b602082019050919050565b600060208201905081810360008301526138c88161388c565b9050919050565b7f53636f726520616c7265616479207375626d6974746564000000000000000000600082015250565b6000613905601783612ca6565b9150613910826138cf565b602082019050919050565b60006020820190508181036000830152613934816138f8565b9050919050565b7f496e76616c69642073747564656e742061646472657373000000000000000000600082015250565b6000613971601783612ca6565b915061397c8261393b565b602082019050919050565b600060208201905081810360008301526139a081613964565b9050919050565b7f53747564656e7420616c72656164792072656769737465726564000000000000600082015250565b60006139dd601a83612ca6565b91506139e8826139a7565b602082019050919050565b60006020820190508181036000830152613a0c816139d0565b9050919050565b600081905092915050565b6000613a2982613221565b613a338185613a13565b9350613a4381856020860161322c565b80840191505092915050565b6000613a5b8284613a1e565b915081905092915050565b7f4f6e6c7920612073747564656e742063616e2063616c6c20746869732066756e60008201527f6374696f6e000000000000000000000000000000000000000000000000000000602082015250565b6000613ac2602583612ca6565b9150613acd82613a66565b604082019050919050565b60006020820190508181036000830152613af181613ab5565b9050919050565b7f496e76616c696420636f75727365204944000000000000000000000000000000600082015250565b6000613b2e601183612ca6565b9150613b3982613af8565b602082019050919050565b60006020820190508181036000830152613b5d81613b21565b9050919050565b7f436f75727365206e6f7420617070726f76656400000000000000000000000000600082015250565b6000613b9a601383612ca6565b9150613ba582613b64565b602082019050919050565b60006020820190508181036000830152613bc981613b8d565b9050919050565b7f4e6f7420616e20696e7374727563746f72000000000000000000000000000000600082015250565b6000613c06601183612ca6565b9150613c1182613bd0565b602082019050919050565b60006020820190508181036000830152613c3581613bf9565b9050919050565b7f4e487b7100000000000000000000000000000000000000000000000000000000600052601160045260246000fd5b6000613c7682612d95565b91507fffffffffffffffffffffffffffffffffffffffffffffffffffffffffffffffff8203613ca857613ca7613c3c565b5b600182019050919050565b60006040820190508181036000830152613ccd8185613256565b9050613cdc60208301846131f7565b9392505050565b7f4e6f2073636f7265207375626d69747465640000000000000000000000000000600082015250565b6000613d19601283612ca6565b9150613d2482613ce3565b602082019050919050565b60006020820190508181036000830152613d4881613d0c565b9050919050565b60006040820190508181036000830152613d698185613256565b9050613d786020830184613115565b9392505050565b7f4e6f7420656e726f6c6c656420696e2074686520636f75727365000000000000600082015250565b6000613db5601a83612ca6565b9150613dc082613d7f565b602082019050919050565b60006020820190508181036000830152613de481613da8565b9050919050565b7f4e6f742061207265676973746572656420696e7374727563746f720000000000600082015250565b6000613e21601b83612ca6565b9150613e2c82613deb565b602082019050919050565b60006020820190508181036000830152613e5081613e14565b9050919050565b7f496e76616c69642073747564656e740000000000000000000000000000000000600082015250565b6000613e8d600f83612ca6565b9150613e9882613e57565b602082019050919050565b60006020820190508181036000830152613ebc81613e80565b9050919050565b6000604082019050613ed860008301856131f7565b613ee56020830184613115565b9392505050565b7f4e487b7100000000000000000000000000000000000000000000000000000000600052603260045260246000fdfea264697066735822122064cf2df59a34ada4ceace9b7f67c0237777f6a13469a106f71825224d2c4944b64736f6c63430008180033",
  "linkReferences": {},
  "deployedLinkReferences": {}
}